{
  "contractName": "admins_mp",
  "abi": [
    {
      "constant": false,
      "inputs": [
        {
          "name": "newAddress",
          "type": "address"
        }
      ],
      "name": "transferAllFunds",
      "outputs": [
        {
          "name": "",
          "type": "uint256"
        }
      ],
      "payable": false,
      "stateMutability": "nonpayable",
      "type": "function"
    },
    {
      "constant": false,
      "inputs": [],
      "name": "unpause",
      "outputs": [],
      "payable": false,
      "stateMutability": "nonpayable",
      "type": "function"
    },
    {
      "constant": false,
      "inputs": [],
      "name": "kill",
      "outputs": [],
      "payable": false,
      "stateMutability": "nonpayable",
      "type": "function"
    },
    {
      "constant": true,
      "inputs": [
        {
          "name": "",
          "type": "address"
        }
      ],
      "name": "admins",
      "outputs": [
        {
          "name": "",
          "type": "bool"
        }
      ],
      "payable": false,
      "stateMutability": "view",
      "type": "function"
    },
    {
      "constant": true,
      "inputs": [],
      "name": "paused",
      "outputs": [
        {
          "name": "",
          "type": "bool"
        }
      ],
      "payable": false,
      "stateMutability": "view",
      "type": "function"
    },
    {
      "constant": true,
      "inputs": [],
      "name": "getContractBalance",
      "outputs": [
        {
          "name": "",
          "type": "uint256"
        }
      ],
      "payable": false,
      "stateMutability": "view",
      "type": "function"
    },
    {
      "constant": false,
      "inputs": [],
      "name": "pause",
      "outputs": [],
      "payable": false,
      "stateMutability": "nonpayable",
      "type": "function"
    },
    {
      "constant": true,
      "inputs": [],
      "name": "owner",
      "outputs": [
        {
          "name": "",
          "type": "address"
        }
      ],
      "payable": false,
      "stateMutability": "view",
      "type": "function"
    },
    {
      "constant": false,
      "inputs": [
        {
          "name": "newOwner",
          "type": "address"
        }
      ],
      "name": "transferOwnership",
      "outputs": [],
      "payable": false,
      "stateMutability": "nonpayable",
      "type": "function"
    },
    {
      "anonymous": false,
      "inputs": [
        {
          "indexed": false,
          "name": "addAdmin",
          "type": "address"
        }
      ],
      "name": "newAdminEvent",
      "type": "event"
    },
    {
      "anonymous": false,
      "inputs": [
        {
          "indexed": false,
          "name": "addAdmin",
          "type": "address"
        }
      ],
      "name": "adminAlreadyExistEvent",
      "type": "event"
    },
    {
      "anonymous": false,
      "inputs": [],
      "name": "Pause",
      "type": "event"
    },
    {
      "anonymous": false,
      "inputs": [],
      "name": "Unpause",
      "type": "event"
    },
    {
      "anonymous": false,
      "inputs": [
        {
          "indexed": true,
          "name": "previousOwner",
          "type": "address"
        },
        {
          "indexed": true,
          "name": "newOwner",
          "type": "address"
        }
      ],
      "name": "OwnershipTransferred",
      "type": "event"
    },
    {
      "constant": false,
      "inputs": [
        {
          "name": "_adminAddress",
          "type": "address"
        }
      ],
      "name": "addNewAdmin",
      "outputs": [],
      "payable": false,
      "stateMutability": "nonpayable",
      "type": "function"
    },
    {
      "constant": true,
      "inputs": [],
      "name": "getAdmins",
      "outputs": [
        {
          "name": "",
          "type": "address[]"
        }
      ],
      "payable": false,
      "stateMutability": "view",
      "type": "function"
    }
  ],
  "bytecode": "0x608060405260008060146101000a81548160ff021916908315150217905550336000806101000a81548173ffffffffffffffffffffffffffffffffffffffff021916908373ffffffffffffffffffffffffffffffffffffffff160217905550610b838061006d6000396000f3006080604052600436106100af576000357c0100000000000000000000000000000000000000000000000000000000900463ffffffff1680630a1b10e1146100b457806331ae450b146100f75780633b789750146101635780633f4ba83a146101ba57806341c0e1b5146101d1578063429b62e5146101e85780635c975abb146102435780636f9fb98a146102725780638456cb591461029d5780638da5cb5b146102b4578063f2fde38b1461030b575b600080fd5b3480156100c057600080fd5b506100f5600480360381019080803573ffffffffffffffffffffffffffffffffffffffff16906020019092919050505061034e565b005b34801561010357600080fd5b5061010c6105df565b6040518080602001828103825283818151815260200191508051906020019060200280838360005b8381101561014f578082015181840152602081019050610134565b505050509050019250505060405180910390f35b34801561016f57600080fd5b506101a4600480360381019080803573ffffffffffffffffffffffffffffffffffffffff16906020019092919050505061066d565b6040518082815260200191505060405180910390f35b3480156101c657600080fd5b506101cf61071d565b005b3480156101dd57600080fd5b506101e66107db565b005b3480156101f457600080fd5b50610229600480360381019080803573ffffffffffffffffffffffffffffffffffffffff169060200190929190505050610870565b604051808215151515815260200191505060405180910390f35b34801561024f57600080fd5b50610258610890565b604051808215151515815260200191505060405180910390f35b34801561027e57600080fd5b506102876108a3565b6040518082815260200191505060405180910390f35b3480156102a957600080fd5b506102b261091d565b005b3480156102c057600080fd5b506102c96109dd565b604051808273ffffffffffffffffffffffffffffffffffffffff1673ffffffffffffffffffffffffffffffffffffffff16815260200191505060405180910390f35b34801561031757600080fd5b5061034c600480360381019080803573ffffffffffffffffffffffffffffffffffffffff169060200190929190505050610a02565b005b6000809054906101000a900473ffffffffffffffffffffffffffffffffffffffff1673ffffffffffffffffffffffffffffffffffffffff163373ffffffffffffffffffffffffffffffffffffffff161415156103a957600080fd5b600060149054906101000a900460ff161515156103c557600080fd5b600073ffffffffffffffffffffffffffffffffffffffff168173ffffffffffffffffffffffffffffffffffffffff161415151561040157600080fd5b600160008273ffffffffffffffffffffffffffffffffffffffff1673ffffffffffffffffffffffffffffffffffffffff16815260200190815260200160002060009054906101000a900460ff16156104bb577f53d0035f6b28e97e97a51153d8a10195bb11195c78d4f1f54b90257dd4b5f24c81604051808273ffffffffffffffffffffffffffffffffffffffff1673ffffffffffffffffffffffffffffffffffffffff16815260200191505060405180910390a16105dc565b60018060008373ffffffffffffffffffffffffffffffffffffffff1673ffffffffffffffffffffffffffffffffffffffff16815260200190815260200160002060006101000a81548160ff02191690831515021790555060028190806001815401808255809150509060018203906000526020600020016000909192909190916101000a81548173ffffffffffffffffffffffffffffffffffffffff021916908373ffffffffffffffffffffffffffffffffffffffff160217905550507f0c4e2d6b66bd305bcffd64765c550562e7aca7e57b5ac5f24a7ec8c64e7e5ab581604051808273ffffffffffffffffffffffffffffffffffffffff1673ffffffffffffffffffffffffffffffffffffffff16815260200191505060405180910390a15b50565b6060600280548060200260200160405190810160405280929190818152602001828054801561066357602002820191906000526020600020905b8160009054906101000a900473ffffffffffffffffffffffffffffffffffffffff1673ffffffffffffffffffffffffffffffffffffffff1681526020019060010190808311610619575b5050505050905090565b60008060009054906101000a900473ffffffffffffffffffffffffffffffffffffffff1673ffffffffffffffffffffffffffffffffffffffff163373ffffffffffffffffffffffffffffffffffffffff161415156106ca57600080fd5b8173ffffffffffffffffffffffffffffffffffffffff166108fc6106ec6108a3565b9081150290604051600060405180830381858888f19350505050158015610717573d6000803e3d6000fd5b50919050565b6000809054906101000a900473ffffffffffffffffffffffffffffffffffffffff1673ffffffffffffffffffffffffffffffffffffffff163373ffffffffffffffffffffffffffffffffffffffff1614151561077857600080fd5b600060149054906101000a900460ff16151561079357600080fd5b60008060146101000a81548160ff0219169083151502179055507f7805862f689e2f13df9f062ff482ad3ad112aca9e0847911ed832e158c525b3360405160405180910390a1565b6000809054906101000a900473ffffffffffffffffffffffffffffffffffffffff1673ffffffffffffffffffffffffffffffffffffffff163373ffffffffffffffffffffffffffffffffffffffff1614151561083657600080fd5b6000809054906101000a900473ffffffffffffffffffffffffffffffffffffffff1673ffffffffffffffffffffffffffffffffffffffff16ff5b60016020528060005260406000206000915054906101000a900460ff1681565b600060149054906101000a900460ff1681565b60008060009054906101000a900473ffffffffffffffffffffffffffffffffffffffff1673ffffffffffffffffffffffffffffffffffffffff163373ffffffffffffffffffffffffffffffffffffffff1614151561090057600080fd5b3073ffffffffffffffffffffffffffffffffffffffff1631905090565b6000809054906101000a900473ffffffffffffffffffffffffffffffffffffffff1673ffffffffffffffffffffffffffffffffffffffff163373ffffffffffffffffffffffffffffffffffffffff1614151561097857600080fd5b600060149054906101000a900460ff1615151561099457600080fd5b6001600060146101000a81548160ff0219169083151502179055507f6985a02210a168e66602d3235cb6db0e70f92b3ba4d376a33c0f3d9434bff62560405160405180910390a1565b6000809054906101000a900473ffffffffffffffffffffffffffffffffffffffff1681565b6000809054906101000a900473ffffffffffffffffffffffffffffffffffffffff1673ffffffffffffffffffffffffffffffffffffffff163373ffffffffffffffffffffffffffffffffffffffff16141515610a5d57600080fd5b600073ffffffffffffffffffffffffffffffffffffffff168173ffffffffffffffffffffffffffffffffffffffff1614151515610a9957600080fd5b8073ffffffffffffffffffffffffffffffffffffffff166000809054906101000a900473ffffffffffffffffffffffffffffffffffffffff1673ffffffffffffffffffffffffffffffffffffffff167f8be0079c531659141344cd1fd0a4f28419497f9722a3daafe3b4186f6b6457e060405160405180910390a3806000806101000a81548173ffffffffffffffffffffffffffffffffffffffff021916908373ffffffffffffffffffffffffffffffffffffffff160217905550505600a165627a7a723058205849a85538b1c969d1877b1bdd61ee71ec31950d229e41962f9412101669220f0029",
  "source": "pragma solidity ^0.4.24;\r\n\r\nimport './Pausable.sol';\r\n\r\n/**\r\n * @title admins_mp\r\n * @dev The admins_mp contract has an contract admin addresses, Add new admin method and OnlyAdmin modifier\r\n */\r\n contract admins_mp is Pausable {\r\n\r\n    /**\r\n    * @dev NewAdminEvent calls when contract owner register a new addmin\r\n    */\r\n    event newAdminEvent(address addAdmin);\r\n    \r\n    /**\r\n    * @dev AdminAlreadyExistEvent get called if duplicate admin tries to register\r\n    */\r\n    event adminAlreadyExistEvent(address addAdmin);\r\n    \r\n    /**\r\n    * @dev mapping variable for admins address to bool\r\n    */\r\n    mapping (address => bool) public admins;\r\n    address[] adminGroup;\r\n    /**\r\n    * @dev AddNewAdmin method to insert new admin by contract owner\r\n    * pausable: yes, this method will not run if contract owner pauses the contract\r\n    * params: address for admin\r\n    */\r\n    function addNewAdmin(address _adminAddress) public onlyOwner whenNotPaused\r\n    {\r\n        require(_adminAddress != address(0));\r\n        if(admins[_adminAddress])\r\n        {\r\n            emit adminAlreadyExistEvent(_adminAddress);\r\n            return;\r\n        }\r\n        \r\n        admins[_adminAddress] = true;\r\n        adminGroup.push(_adminAddress);\r\n        emit newAdminEvent(_adminAddress);\r\n    }\r\n    /**\r\n     * This function can be used for validating admin but not using since admins variable is more than enough\r\n    function IsValidAdmin(address _adminAddress) public constant returns (bool) {\r\n        return(admins[_adminAddress]);\r\n    }\r\n    */\r\n    /**\r\n    * @dev Throws if called by any account other than the admins. Modifier for only admins\r\n    */\r\n    modifier onlyAdmin() {\r\n        require(admins[msg.sender] == true);\r\n    _;\r\n    }\r\n    /**\r\n    * @dev To get all admins\r\n    */\r\n    function getAdmins() public view returns(address[]) {\r\n        return adminGroup;\r\n    }\r\n}",
  "sourcePath": "I:\\test\\rajmahar_mp1\\marketplace\\contracts\\admins_mp.sol",
  "compiler": {
    "name": "solc",
    "version": "0.4.24+commit.e67f0147.Emscripten.clang"
  },
  "schemaVersion": "2.0.1",
  "updatedAt": "2018-08-27T22:13:21.988Z"
}