{
  "contractName": "library_mp",
  "abi": [
    {
      "constant": true,
      "inputs": [
        {
          "name": "strParam",
          "type": "string"
        }
      ],
      "name": "IsEmptyString",
      "outputs": [
        {
          "name": "",
          "type": "bool"
        }
      ],
      "payable": false,
      "stateMutability": "pure",
      "type": "function"
    }
  ],
  "bytecode": "0x61011c610030600b82828239805160001a6073146000811461002057610022565bfe5b5030600052607381538281f30073000000000000000000000000000000000000000030146080604052600436106056576000357c0100000000000000000000000000000000000000000000000000000000900463ffffffff168063ed1a54db14605b575b600080fd5b60b3600480360381019080803590602001908201803590602001908080601f016020809104026020016040519081016040528093929190818152602001838380828437820191505050505050919291929050505060cd565b604051808215151515815260200191505060405180910390f35b6000606082905060008151141560e5576001915060ea565b600091505b509190505600a165627a7a72305820a6afacef563f5e7956fa2716b92917f79ee64a6f6bb7ace1960e4a1c54e9d9e90029",
  "source": "pragma solidity ^0.4.24;\r\n\r\n/**\r\n * author: Rajendra Maharjan\r\n * @title library_mp\r\n * @dev This is a common method library file.\r\n */\r\nlibrary library_mp {\r\n   /**\r\n   * @dev returns true if string parameter is empty and returns false if string parameter is not empty\r\n   * @ param string value \r\n   * @ return if empty return true, false otherwise\r\n   */\r\n    function IsEmptyString(string strParam) public pure returns(bool)\r\n    {\r\n        bytes memory tempEmptyString = bytes(strParam); // Uses memory\r\n        if (tempEmptyString.length == 0) {\r\n            return true;\r\n        }\r\n        else {\r\n            return false;\r\n        }\r\n    }\r\n}",
  "sourcePath": "I:\\test\\rajmahar_mp1\\marketplace\\contracts\\library_mp.sol",
  "compiler": {
    "name": "solc",
    "version": "0.4.24+commit.e67f0147.Emscripten.clang"
  },
  "schemaVersion": "2.0.1",
  "updatedAt": "2018-08-27T22:32:14.113Z"
}