{
  "contractName": "marketplace",
  "abi": [
    {
      "constant": false,
      "inputs": [
        {
          "name": "_amountToWithdraw",
          "type": "uint256"
        }
      ],
      "name": "withdrawAmount",
      "outputs": [],
      "payable": false,
      "stateMutability": "nonpayable",
      "type": "function"
    },
    {
      "constant": false,
      "inputs": [
        {
          "name": "_storeOwnerAddress",
          "type": "address"
        }
      ],
      "name": "approveStoreByAdmin",
      "outputs": [],
      "payable": false,
      "stateMutability": "nonpayable",
      "type": "function"
    },
    {
      "constant": false,
      "inputs": [
        {
          "name": "_adminAddress",
          "type": "address"
        }
      ],
      "name": "addNewAdmin",
      "outputs": [],
      "payable": false,
      "stateMutability": "nonpayable",
      "type": "function"
    },
    {
      "constant": true,
      "inputs": [
        {
          "name": "_storeOwnerAddress",
          "type": "address"
        }
      ],
      "name": "getFrontCountByOwner",
      "outputs": [
        {
          "name": "",
          "type": "uint256"
        }
      ],
      "payable": false,
      "stateMutability": "view",
      "type": "function"
    },
    {
      "constant": true,
      "inputs": [],
      "name": "getStoreOwnerBalance",
      "outputs": [
        {
          "name": "",
          "type": "uint256"
        }
      ],
      "payable": false,
      "stateMutability": "view",
      "type": "function"
    },
    {
      "constant": true,
      "inputs": [],
      "name": "getAdmins",
      "outputs": [
        {
          "name": "",
          "type": "address[]"
        }
      ],
      "payable": false,
      "stateMutability": "view",
      "type": "function"
    },
    {
      "constant": false,
      "inputs": [
        {
          "name": "newAddress",
          "type": "address"
        }
      ],
      "name": "transferAllFunds",
      "outputs": [
        {
          "name": "",
          "type": "uint256"
        }
      ],
      "payable": false,
      "stateMutability": "nonpayable",
      "type": "function"
    },
    {
      "constant": false,
      "inputs": [],
      "name": "unpause",
      "outputs": [],
      "payable": false,
      "stateMutability": "nonpayable",
      "type": "function"
    },
    {
      "constant": true,
      "inputs": [],
      "name": "getUserType",
      "outputs": [
        {
          "name": "",
          "type": "uint8"
        }
      ],
      "payable": false,
      "stateMutability": "view",
      "type": "function"
    },
    {
      "constant": false,
      "inputs": [],
      "name": "kill",
      "outputs": [],
      "payable": false,
      "stateMutability": "nonpayable",
      "type": "function"
    },
    {
      "constant": true,
      "inputs": [
        {
          "name": "",
          "type": "address"
        }
      ],
      "name": "admins",
      "outputs": [
        {
          "name": "",
          "type": "bool"
        }
      ],
      "payable": false,
      "stateMutability": "view",
      "type": "function"
    },
    {
      "constant": true,
      "inputs": [
        {
          "name": "",
          "type": "address"
        },
        {
          "name": "",
          "type": "uint256"
        },
        {
          "name": "",
          "type": "uint256"
        }
      ],
      "name": "products",
      "outputs": [
        {
          "name": "seller",
          "type": "address"
        },
        {
          "name": "name",
          "type": "string"
        },
        {
          "name": "p_detail",
          "type": "string"
        },
        {
          "name": "unit_price",
          "type": "uint256"
        },
        {
          "name": "quantity",
          "type": "uint256"
        },
        {
          "name": "image_link_ipfs",
          "type": "string"
        }
      ],
      "payable": false,
      "stateMutability": "view",
      "type": "function"
    },
    {
      "constant": false,
      "inputs": [
        {
          "name": "_store_name",
          "type": "string"
        }
      ],
      "name": "addNewStore",
      "outputs": [],
      "payable": false,
      "stateMutability": "nonpayable",
      "type": "function"
    },
    {
      "constant": true,
      "inputs": [],
      "name": "paused",
      "outputs": [
        {
          "name": "",
          "type": "bool"
        }
      ],
      "payable": false,
      "stateMutability": "view",
      "type": "function"
    },
    {
      "constant": true,
      "inputs": [
        {
          "name": "_storeOwnerAddress",
          "type": "address"
        }
      ],
      "name": "getStoreByAddress",
      "outputs": [
        {
          "name": "",
          "type": "string"
        },
        {
          "name": "",
          "type": "bool"
        },
        {
          "name": "",
          "type": "address"
        }
      ],
      "payable": false,
      "stateMutability": "view",
      "type": "function"
    },
    {
      "constant": true,
      "inputs": [],
      "name": "getContractBalance",
      "outputs": [
        {
          "name": "",
          "type": "uint256"
        }
      ],
      "payable": false,
      "stateMutability": "view",
      "type": "function"
    },
    {
      "constant": true,
      "inputs": [
        {
          "name": "",
          "type": "address"
        }
      ],
      "name": "orderCount",
      "outputs": [
        {
          "name": "",
          "type": "uint256"
        }
      ],
      "payable": false,
      "stateMutability": "view",
      "type": "function"
    },
    {
      "constant": true,
      "inputs": [
        {
          "name": "",
          "type": "address"
        },
        {
          "name": "",
          "type": "uint256"
        }
      ],
      "name": "orders",
      "outputs": [
        {
          "name": "buyer",
          "type": "address"
        },
        {
          "name": "front_id",
          "type": "uint256"
        },
        {
          "name": "product_id",
          "type": "uint256"
        },
        {
          "name": "unit_price",
          "type": "uint256"
        },
        {
          "name": "quantity",
          "type": "uint256"
        }
      ],
      "payable": false,
      "stateMutability": "view",
      "type": "function"
    },
    {
      "constant": true,
      "inputs": [
        {
          "name": "",
          "type": "address"
        },
        {
          "name": "",
          "type": "uint256"
        }
      ],
      "name": "productCount",
      "outputs": [
        {
          "name": "",
          "type": "uint256"
        }
      ],
      "payable": false,
      "stateMutability": "view",
      "type": "function"
    },
    {
      "constant": true,
      "inputs": [
        {
          "name": "",
          "type": "uint256"
        }
      ],
      "name": "storeOwnerAddresses",
      "outputs": [
        {
          "name": "",
          "type": "address"
        }
      ],
      "payable": false,
      "stateMutability": "view",
      "type": "function"
    },
    {
      "constant": true,
      "inputs": [
        {
          "name": "",
          "type": "address"
        }
      ],
      "name": "store_owner_balances",
      "outputs": [
        {
          "name": "",
          "type": "uint256"
        }
      ],
      "payable": false,
      "stateMutability": "view",
      "type": "function"
    },
    {
      "constant": false,
      "inputs": [],
      "name": "pause",
      "outputs": [],
      "payable": false,
      "stateMutability": "nonpayable",
      "type": "function"
    },
    {
      "constant": true,
      "inputs": [],
      "name": "owner",
      "outputs": [
        {
          "name": "",
          "type": "address"
        }
      ],
      "payable": false,
      "stateMutability": "view",
      "type": "function"
    },
    {
      "constant": true,
      "inputs": [],
      "name": "getAllStoreAddresses",
      "outputs": [
        {
          "name": "",
          "type": "address[]"
        }
      ],
      "payable": false,
      "stateMutability": "view",
      "type": "function"
    },
    {
      "constant": true,
      "inputs": [
        {
          "name": "",
          "type": "address"
        }
      ],
      "name": "store_owners",
      "outputs": [
        {
          "name": "store_name",
          "type": "string"
        },
        {
          "name": "isApproved",
          "type": "bool"
        },
        {
          "name": "approvedBy",
          "type": "address"
        },
        {
          "name": "flag",
          "type": "bool"
        }
      ],
      "payable": false,
      "stateMutability": "view",
      "type": "function"
    },
    {
      "constant": true,
      "inputs": [
        {
          "name": "",
          "type": "address"
        },
        {
          "name": "",
          "type": "uint256"
        }
      ],
      "name": "fronts",
      "outputs": [
        {
          "name": "front_name",
          "type": "string"
        }
      ],
      "payable": false,
      "stateMutability": "view",
      "type": "function"
    },
    {
      "constant": true,
      "inputs": [
        {
          "name": "",
          "type": "address"
        }
      ],
      "name": "frontCount",
      "outputs": [
        {
          "name": "",
          "type": "uint256"
        }
      ],
      "payable": false,
      "stateMutability": "view",
      "type": "function"
    },
    {
      "constant": true,
      "inputs": [],
      "name": "getMaxAmountCanWithdraw",
      "outputs": [
        {
          "name": "",
          "type": "uint256"
        }
      ],
      "payable": false,
      "stateMutability": "view",
      "type": "function"
    },
    {
      "constant": false,
      "inputs": [
        {
          "name": "_front_name",
          "type": "string"
        }
      ],
      "name": "addStorefront",
      "outputs": [],
      "payable": false,
      "stateMutability": "nonpayable",
      "type": "function"
    },
    {
      "constant": true,
      "inputs": [
        {
          "name": "_storeOwnerAddress",
          "type": "address"
        },
        {
          "name": "_front_index",
          "type": "uint256"
        }
      ],
      "name": "getFrontDetailsByOwner",
      "outputs": [
        {
          "name": "",
          "type": "string"
        },
        {
          "name": "",
          "type": "uint256"
        }
      ],
      "payable": false,
      "stateMutability": "view",
      "type": "function"
    },
    {
      "constant": false,
      "inputs": [
        {
          "name": "newOwner",
          "type": "address"
        }
      ],
      "name": "transferOwnership",
      "outputs": [],
      "payable": false,
      "stateMutability": "nonpayable",
      "type": "function"
    },
    {
      "anonymous": false,
      "inputs": [
        {
          "indexed": false,
          "name": "store_owner",
          "type": "address"
        },
        {
          "indexed": false,
          "name": "storefront_name",
          "type": "string"
        },
        {
          "indexed": false,
          "name": "product_name",
          "type": "string"
        },
        {
          "indexed": false,
          "name": "p_detail",
          "type": "string"
        },
        {
          "indexed": false,
          "name": "unit_price",
          "type": "uint256"
        },
        {
          "indexed": false,
          "name": "quantity",
          "type": "uint256"
        },
        {
          "indexed": false,
          "name": "image_link_ipfs",
          "type": "string"
        }
      ],
      "name": "newProductInserted",
      "type": "event"
    },
    {
      "anonymous": false,
      "inputs": [
        {
          "indexed": false,
          "name": "store_owner",
          "type": "address"
        },
        {
          "indexed": false,
          "name": "front_id",
          "type": "uint256"
        }
      ],
      "name": "emptyProductNameOnInsert",
      "type": "event"
    },
    {
      "anonymous": false,
      "inputs": [
        {
          "indexed": false,
          "name": "store_owner",
          "type": "address"
        },
        {
          "indexed": false,
          "name": "front_id",
          "type": "uint256"
        },
        {
          "indexed": false,
          "name": "product_id",
          "type": "uint256"
        },
        {
          "indexed": false,
          "name": "name",
          "type": "string"
        },
        {
          "indexed": false,
          "name": "p_detail",
          "type": "string"
        },
        {
          "indexed": false,
          "name": "unit_price",
          "type": "uint256"
        },
        {
          "indexed": false,
          "name": "quantity",
          "type": "uint256"
        },
        {
          "indexed": false,
          "name": "image_link_ipfs",
          "type": "string"
        }
      ],
      "name": "productUpdate",
      "type": "event"
    },
    {
      "anonymous": false,
      "inputs": [
        {
          "indexed": false,
          "name": "store_owner",
          "type": "address"
        },
        {
          "indexed": false,
          "name": "front_id",
          "type": "uint256"
        },
        {
          "indexed": false,
          "name": "product_id",
          "type": "uint256"
        },
        {
          "indexed": false,
          "name": "name",
          "type": "string"
        }
      ],
      "name": "productNotExist",
      "type": "event"
    },
    {
      "anonymous": false,
      "inputs": [
        {
          "indexed": false,
          "name": "store_owner",
          "type": "address"
        },
        {
          "indexed": false,
          "name": "front_id",
          "type": "uint256"
        },
        {
          "indexed": false,
          "name": "product_id",
          "type": "uint256"
        }
      ],
      "name": "deleteAProduct",
      "type": "event"
    },
    {
      "anonymous": false,
      "inputs": [
        {
          "indexed": false,
          "name": "store_owner",
          "type": "address"
        },
        {
          "indexed": false,
          "name": "front_id",
          "type": "uint256"
        },
        {
          "indexed": false,
          "name": "product_id",
          "type": "uint256"
        }
      ],
      "name": "emptyProductNameOnUpdate",
      "type": "event"
    },
    {
      "anonymous": false,
      "inputs": [
        {
          "indexed": false,
          "name": "buyer",
          "type": "address"
        },
        {
          "indexed": false,
          "name": "seller",
          "type": "address"
        },
        {
          "indexed": false,
          "name": "front_id",
          "type": "uint256"
        },
        {
          "indexed": false,
          "name": "product_id",
          "type": "uint256"
        },
        {
          "indexed": false,
          "name": "unit_price",
          "type": "uint256"
        },
        {
          "indexed": false,
          "name": "quantity",
          "type": "uint256"
        }
      ],
      "name": "newOrder",
      "type": "event"
    },
    {
      "anonymous": false,
      "inputs": [
        {
          "indexed": false,
          "name": "store_owner",
          "type": "address"
        },
        {
          "indexed": false,
          "name": "front_name",
          "type": "string"
        }
      ],
      "name": "newStorefrontInserted",
      "type": "event"
    },
    {
      "anonymous": false,
      "inputs": [
        {
          "indexed": false,
          "name": "store_owner",
          "type": "address"
        }
      ],
      "name": "emptyStoreFrontName",
      "type": "event"
    },
    {
      "anonymous": false,
      "inputs": [
        {
          "indexed": false,
          "name": "store_owner",
          "type": "address"
        },
        {
          "indexed": false,
          "name": "store_name",
          "type": "string"
        },
        {
          "indexed": false,
          "name": "isApproved",
          "type": "bool"
        }
      ],
      "name": "emptyStoreNameEvent",
      "type": "event"
    },
    {
      "anonymous": false,
      "inputs": [
        {
          "indexed": false,
          "name": "store_owner",
          "type": "address"
        }
      ],
      "name": "storeAlreadyExistEvent",
      "type": "event"
    },
    {
      "anonymous": false,
      "inputs": [
        {
          "indexed": false,
          "name": "store_owner",
          "type": "address"
        },
        {
          "indexed": false,
          "name": "store_name",
          "type": "string"
        },
        {
          "indexed": false,
          "name": "isApproved",
          "type": "bool"
        }
      ],
      "name": "newStoreApplicationEvent",
      "type": "event"
    },
    {
      "anonymous": false,
      "inputs": [
        {
          "indexed": false,
          "name": "store_owner",
          "type": "address"
        },
        {
          "indexed": false,
          "name": "store_name",
          "type": "string"
        },
        {
          "indexed": false,
          "name": "isApproved",
          "type": "bool"
        }
      ],
      "name": "approveStoreApplicationEvent",
      "type": "event"
    },
    {
      "anonymous": false,
      "inputs": [
        {
          "indexed": false,
          "name": "storeAddress",
          "type": "address"
        },
        {
          "indexed": false,
          "name": "amountWithdrawn",
          "type": "uint256"
        }
      ],
      "name": "amountWithdrawn",
      "type": "event"
    },
    {
      "anonymous": false,
      "inputs": [
        {
          "indexed": false,
          "name": "addAdmin",
          "type": "address"
        }
      ],
      "name": "newAdminEvent",
      "type": "event"
    },
    {
      "anonymous": false,
      "inputs": [
        {
          "indexed": false,
          "name": "addAdmin",
          "type": "address"
        }
      ],
      "name": "adminAlreadyExistEvent",
      "type": "event"
    },
    {
      "anonymous": false,
      "inputs": [],
      "name": "Pause",
      "type": "event"
    },
    {
      "anonymous": false,
      "inputs": [],
      "name": "Unpause",
      "type": "event"
    },
    {
      "anonymous": false,
      "inputs": [
        {
          "indexed": true,
          "name": "previousOwner",
          "type": "address"
        },
        {
          "indexed": true,
          "name": "newOwner",
          "type": "address"
        }
      ],
      "name": "OwnershipTransferred",
      "type": "event"
    },
    {
      "constant": false,
      "inputs": [
        {
          "name": "_front_id",
          "type": "uint256"
        },
        {
          "name": "_name",
          "type": "string"
        },
        {
          "name": "_p_detail",
          "type": "string"
        },
        {
          "name": "_unit_price",
          "type": "uint256"
        },
        {
          "name": "_quantity",
          "type": "uint256"
        },
        {
          "name": "_image_link_ipfs",
          "type": "string"
        }
      ],
      "name": "addNewProduct",
      "outputs": [],
      "payable": false,
      "stateMutability": "nonpayable",
      "type": "function"
    },
    {
      "constant": false,
      "inputs": [
        {
          "name": "_front_id",
          "type": "uint256"
        },
        {
          "name": "_product_id",
          "type": "uint256"
        },
        {
          "name": "_name",
          "type": "string"
        },
        {
          "name": "_p_detail",
          "type": "string"
        },
        {
          "name": "_unit_price",
          "type": "uint256"
        },
        {
          "name": "_quantity",
          "type": "uint256"
        },
        {
          "name": "_image_link_ipfs",
          "type": "string"
        }
      ],
      "name": "updateProduct",
      "outputs": [],
      "payable": false,
      "stateMutability": "nonpayable",
      "type": "function"
    },
    {
      "constant": false,
      "inputs": [
        {
          "name": "_front_id",
          "type": "uint256"
        },
        {
          "name": "_product_id",
          "type": "uint256"
        }
      ],
      "name": "deleteProduct",
      "outputs": [],
      "payable": false,
      "stateMutability": "nonpayable",
      "type": "function"
    },
    {
      "constant": true,
      "inputs": [
        {
          "name": "_storeOwnerAddress",
          "type": "address"
        },
        {
          "name": "_front_id",
          "type": "uint256"
        }
      ],
      "name": "getProductCountByFront",
      "outputs": [
        {
          "name": "",
          "type": "uint256"
        }
      ],
      "payable": false,
      "stateMutability": "view",
      "type": "function"
    },
    {
      "constant": true,
      "inputs": [
        {
          "name": "_storeOwnerAddress",
          "type": "address"
        },
        {
          "name": "_front_id",
          "type": "uint256"
        },
        {
          "name": "_product_id",
          "type": "uint256"
        }
      ],
      "name": "getEachProductByOwner",
      "outputs": [
        {
          "name": "",
          "type": "string"
        },
        {
          "name": "",
          "type": "string"
        },
        {
          "name": "",
          "type": "uint256"
        },
        {
          "name": "",
          "type": "uint256"
        },
        {
          "name": "",
          "type": "string"
        }
      ],
      "payable": false,
      "stateMutability": "view",
      "type": "function"
    },
    {
      "constant": false,
      "inputs": [
        {
          "name": "_seller",
          "type": "address"
        },
        {
          "name": "_front_id",
          "type": "uint256"
        },
        {
          "name": "_product_id",
          "type": "uint256"
        },
        {
          "name": "_unit_price",
          "type": "uint256"
        },
        {
          "name": "_order_quantity",
          "type": "uint256"
        }
      ],
      "name": "orderItems",
      "outputs": [],
      "payable": true,
      "stateMutability": "payable",
      "type": "function"
    },
    {
      "constant": true,
      "inputs": [
        {
          "name": "order_id",
          "type": "uint256"
        }
      ],
      "name": "getOrdersBySeller",
      "outputs": [
        {
          "name": "",
          "type": "address"
        },
        {
          "name": "",
          "type": "uint256"
        },
        {
          "name": "",
          "type": "uint256"
        },
        {
          "name": "",
          "type": "string"
        },
        {
          "name": "",
          "type": "uint256"
        },
        {
          "name": "",
          "type": "uint256"
        }
      ],
      "payable": false,
      "stateMutability": "view",
      "type": "function"
    },
    {
      "constant": true,
      "inputs": [],
      "name": "getOrderCountBySeller",
      "outputs": [
        {
          "name": "",
          "type": "uint256"
        }
      ],
      "payable": false,
      "stateMutability": "view",
      "type": "function"
    }
  ],
  "bytecode": "0x608060405260008060146101000a81548160ff021916908315150217905550336000806101000a81548173ffffffffffffffffffffffffffffffffffffffff021916908373ffffffffffffffffffffffffffffffffffffffff160217905550615e418061006d6000396000f3006080604052600436106101e3576000357c0100000000000000000000000000000000000000000000000000000000900463ffffffff1680630562b9f7146101e857806306a66a0f146102155780630a1b10e1146102585780630d518cfa1461029b578063109f1dd2146102f2578063140e7d67146104a85780631f076922146104d357806322ed8169146104fe5780632d11ac481461055f57806331ae450b146106725780633b789750146106de5780633f4ba83a14610735578063419900771461074c57806341c0e1b514610785578063429b62e51461079c5780634eb997be146107f757806358df925b146109e05780635a5dae4114610afd5780635c975abb14610b665780636439607814610b9557806366ee579114610bf35780636f9fb98a14610ced578063713d856b14610d18578063793b8c6d14610d6f5780637f8e057114610e185780638269c96d14610e7957806383c4045014610ee65780638456cb5914610f3d5780638da5cb5b14610f5457806398330f9714610fab578063a1c48cc414611017578063a28e3e391461104e578063a6b3616314611143578063b629917614611248578063bf2c0f121461130e578063c03a3a2b14611365578063f054bff714611390578063f272c7c6146113f9578063f2fde38b146114c6575b600080fd5b3480156101f457600080fd5b5061021360048036038101908080359060200190929190505050611509565b005b34801561022157600080fd5b50610256600480360381019080803573ffffffffffffffffffffffffffffffffffffffff169060200190929190505050611773565b005b34801561026457600080fd5b50610299600480360381019080803573ffffffffffffffffffffffffffffffffffffffff169060200190929190505050611a9c565b005b3480156102a757600080fd5b506102dc600480360381019080803573ffffffffffffffffffffffffffffffffffffffff169060200190929190505050611d2d565b6040518082815260200191505060405180910390f35b3480156102fe57600080fd5b50610347600480360381019080803573ffffffffffffffffffffffffffffffffffffffff1690602001909291908035906020019092919080359060200190929190505050611e0c565b60405180806020018060200186815260200185815260200180602001848103845289818151815260200191508051906020019080838360005b8381101561039b578082015181840152602081019050610380565b50505050905090810190601f1680156103c85780820380516001836020036101000a031916815260200191505b50848103835288818151815260200191508051906020019080838360005b838110156104015780820151818401526020810190506103e6565b50505050905090810190601f16801561042e5780820380516001836020036101000a031916815260200191505b50848103825285818151815260200191508051906020019080838360005b8381101561046757808201518184015260208101905061044c565b50505050905090810190601f1680156104945780820380516001836020036101000a031916815260200191505b509850505050505050505060405180910390f35b3480156104b457600080fd5b506104bd612291565b6040518082815260200191505060405180910390f35b3480156104df57600080fd5b506104e861233a565b6040518082815260200191505060405180910390f35b34801561050a57600080fd5b50610549600480360381019080803573ffffffffffffffffffffffffffffffffffffffff169060200190929190803590602001909291905050506123bb565b6040518082815260200191505060405180910390f35b34801561056b57600080fd5b5061067060048036038101908080359060200190929190803590602001908201803590602001908080601f0160208091040260200160405190810160405280939291908181526020018383808284378201915050505050509192919290803590602001908201803590602001908080601f01602080910402602001604051908101604052809392919081815260200183838082843782019150505050505091929192908035906020019092919080359060200190929190803590602001908201803590602001908080601f0160208091040260200160405190810160405280939291908181526020018383808284378201915050505050509192919290505050612416565b005b34801561067e57600080fd5b50610687612aed565b6040518080602001828103825283818151815260200191508051906020019060200280838360005b838110156106ca5780820151818401526020810190506106af565b505050509050019250505060405180910390f35b3480156106ea57600080fd5b5061071f600480360381019080803573ffffffffffffffffffffffffffffffffffffffff169060200190929190505050612b7b565b6040518082815260200191505060405180910390f35b34801561074157600080fd5b5061074a612c2b565b005b34801561075857600080fd5b50610761612ce9565b6040518082600381111561077157fe5b60ff16815260200191505060405180910390f35b34801561079157600080fd5b5061079a612e0a565b005b3480156107a857600080fd5b506107dd600480360381019080803573ffffffffffffffffffffffffffffffffffffffff169060200190929190505050612e9f565b604051808215151515815260200191505060405180910390f35b34801561080357600080fd5b5061084c600480360381019080803573ffffffffffffffffffffffffffffffffffffffff1690602001909291908035906020019092919080359060200190929190505050612ebf565b604051808773ffffffffffffffffffffffffffffffffffffffff1673ffffffffffffffffffffffffffffffffffffffff168152602001806020018060200186815260200185815260200180602001848103845289818151815260200191508051906020019080838360005b838110156108d25780820151818401526020810190506108b7565b50505050905090810190601f1680156108ff5780820380516001836020036101000a031916815260200191505b50848103835288818151815260200191508051906020019080838360005b8381101561093857808201518184015260208101905061091d565b50505050905090810190601f1680156109655780820380516001836020036101000a031916815260200191505b50848103825285818151815260200191508051906020019080838360005b8381101561099e578082015181840152602081019050610983565b50505050905090810190601f1680156109cb5780820380516001836020036101000a031916815260200191505b50995050505050505050505060405180910390f35b3480156109ec57600080fd5b50610afb6004803603810190808035906020019092919080359060200190929190803590602001908201803590602001908080601f0160208091040260200160405190810160405280939291908181526020018383808284378201915050505050509192919290803590602001908201803590602001908080601f01602080910402602001604051908101604052809392919081815260200183838082843782019150505050505091929192908035906020019092919080359060200190929190803590602001908201803590602001908080601f01602080910402602001604051908101604052809392919081815260200183838082843782019150505050505091929192905050506130fd565b005b348015610b0957600080fd5b50610b64600480360381019080803590602001908201803590602001908080601f01602080910402602001604051908101604052809392919081815260200183838082843782019150505050505091929192905050506137e1565b005b348015610b7257600080fd5b50610b7b613d27565b604051808215151515815260200191505060405180910390f35b610bf1600480360381019080803573ffffffffffffffffffffffffffffffffffffffff16906020019092919080359060200190929190803590602001909291908035906020019092919080359060200190929190505050613d3a565b005b348015610bff57600080fd5b50610c34600480360381019080803573ffffffffffffffffffffffffffffffffffffffff16906020019092919050505061419c565b6040518080602001841515151581526020018373ffffffffffffffffffffffffffffffffffffffff1673ffffffffffffffffffffffffffffffffffffffff168152602001828103825285818151815260200191508051906020019080838360005b83811015610cb0578082015181840152602081019050610c95565b50505050905090810190601f168015610cdd5780820380516001836020036101000a031916815260200191505b5094505050505060405180910390f35b348015610cf957600080fd5b50610d026143f2565b6040518082815260200191505060405180910390f35b348015610d2457600080fd5b50610d59600480360381019080803573ffffffffffffffffffffffffffffffffffffffff16906020019092919050505061446c565b6040518082815260200191505060405180910390f35b348015610d7b57600080fd5b50610dba600480360381019080803573ffffffffffffffffffffffffffffffffffffffff16906020019092919080359060200190929190505050614484565b604051808673ffffffffffffffffffffffffffffffffffffffff1673ffffffffffffffffffffffffffffffffffffffff1681526020018581526020018481526020018381526020018281526020019550505050505060405180910390f35b348015610e2457600080fd5b50610e63600480360381019080803573ffffffffffffffffffffffffffffffffffffffff169060200190929190803590602001909291905050506144e7565b6040518082815260200191505060405180910390f35b348015610e8557600080fd5b50610ea46004803603810190808035906020019092919050505061450c565b604051808273ffffffffffffffffffffffffffffffffffffffff1673ffffffffffffffffffffffffffffffffffffffff16815260200191505060405180910390f35b348015610ef257600080fd5b50610f27600480360381019080803573ffffffffffffffffffffffffffffffffffffffff16906020019092919050505061454a565b6040518082815260200191505060405180910390f35b348015610f4957600080fd5b50610f52614562565b005b348015610f6057600080fd5b50610f69614622565b604051808273ffffffffffffffffffffffffffffffffffffffff1673ffffffffffffffffffffffffffffffffffffffff16815260200191505060405180910390f35b348015610fb757600080fd5b50610fc0614647565b6040518080602001828103825283818151815260200191508051906020019060200280838360005b83811015611003578082015181840152602081019050610fe8565b505050509050019250505060405180910390f35b34801561102357600080fd5b5061104c60048036038101908080359060200190929190803590602001909291905050506146d5565b005b34801561105a57600080fd5b5061107960048036038101908080359060200190929190505050614e63565b604051808773ffffffffffffffffffffffffffffffffffffffff1673ffffffffffffffffffffffffffffffffffffffff16815260200186815260200185815260200180602001848152602001838152602001828103825285818151815260200191508051906020019080838360005b838110156111035780820151818401526020810190506110e8565b50505050905090810190601f1680156111305780820380516001836020036101000a031916815260200191505b5097505050505050505060405180910390f35b34801561114f57600080fd5b50611184600480360381019080803573ffffffffffffffffffffffffffffffffffffffff169060200190929190505050615259565b6040518080602001851515151581526020018473ffffffffffffffffffffffffffffffffffffffff1673ffffffffffffffffffffffffffffffffffffffff16815260200183151515158152602001828103825286818151815260200191508051906020019080838360005b8381101561120a5780820151818401526020810190506111ef565b50505050905090810190601f1680156112375780820380516001836020036101000a031916815260200191505b509550505050505060405180910390f35b34801561125457600080fd5b50611293600480360381019080803573ffffffffffffffffffffffffffffffffffffffff1690602001909291908035906020019092919050505061535b565b6040518080602001828103825283818151815260200191508051906020019080838360005b838110156112d35780820151818401526020810190506112b8565b50505050905090810190601f1680156113005780820380516001836020036101000a031916815260200191505b509250505060405180910390f35b34801561131a57600080fd5b5061134f600480360381019080803573ffffffffffffffffffffffffffffffffffffffff16906020019092919050505061541e565b6040518082815260200191505060405180910390f35b34801561137157600080fd5b5061137a615436565b6040518082815260200191505060405180910390f35b34801561139c57600080fd5b506113f7600480360381019080803590602001908201803590602001908080601f01602080910402602001604051908101604052809392919081815260200183838082843782019150505050505091929192905050506154fb565b005b34801561140557600080fd5b50611444600480360381019080803573ffffffffffffffffffffffffffffffffffffffff169060200190929190803590602001909291905050506158f4565b6040518080602001838152602001828103825284818151815260200191508051906020019080838360005b8381101561148a57808201518184015260208101905061146f565b50505050905090810190601f1680156114b75780820380516001836020036101000a031916815260200191505b50935050505060405180910390f35b3480156114d257600080fd5b50611507600480360381019080803573ffffffffffffffffffffffffffffffffffffffff169060200190929190505050615a89565b005b60011515600360003373ffffffffffffffffffffffffffffffffffffffff1673ffffffffffffffffffffffffffffffffffffffff16815260200190815260200160002060010160159054906101000a900460ff16151514151561156b57600080fd5b600060149054906101000a900460ff1615151561158757600080fd5b803073ffffffffffffffffffffffffffffffffffffffff1631101515156115ad57600080fd5b80600460003373ffffffffffffffffffffffffffffffffffffffff1673ffffffffffffffffffffffffffffffffffffffff16815260200190815260200160002054101515156115fb57600080fd5b3373ffffffffffffffffffffffffffffffffffffffff1631813373ffffffffffffffffffffffffffffffffffffffff1631011015801561166b57503373ffffffffffffffffffffffffffffffffffffffff1631813373ffffffffffffffffffffffffffffffffffffffff16310311155b156117705780600460003373ffffffffffffffffffffffffffffffffffffffff1673ffffffffffffffffffffffffffffffffffffffff168152602001908152602001600020600082825403925050819055503373ffffffffffffffffffffffffffffffffffffffff166108fc829081150290604051600060405180830381858888f19350505050158015611703573d6000803e3d6000fd5b507fb2f5d4c0f2ba5229a12fd1382c4e4a7de3abb1a36c6e9f17e123d90a555b61b33382604051808373ffffffffffffffffffffffffffffffffffffffff1673ffffffffffffffffffffffffffffffffffffffff1681526020018281526020019250505060405180910390a15b50565b60011515600160003373ffffffffffffffffffffffffffffffffffffffff1673ffffffffffffffffffffffffffffffffffffffff16815260200190815260200160002060009054906101000a900460ff1615151415156117d257600080fd5b600060149054906101000a900460ff161515156117ee57600080fd5b600073ffffffffffffffffffffffffffffffffffffffff168173ffffffffffffffffffffffffffffffffffffffff161415151561182a57600080fd5b600160003373ffffffffffffffffffffffffffffffffffffffff1673ffffffffffffffffffffffffffffffffffffffff16815260200190815260200160002060009054906101000a900460ff16151561188257600080fd5b6001600360008373ffffffffffffffffffffffffffffffffffffffff1673ffffffffffffffffffffffffffffffffffffffff16815260200190815260200160002060010160006101000a81548160ff02191690831515021790555033600360008373ffffffffffffffffffffffffffffffffffffffff1673ffffffffffffffffffffffffffffffffffffffff16815260200190815260200160002060010160016101000a81548173ffffffffffffffffffffffffffffffffffffffff021916908373ffffffffffffffffffffffffffffffffffffffff1602179055507f2d3b3f8ade3bae1b99cd0098d3cac1b37137c4e77f3d7e94cbb043b76c3dac1481600360008473ffffffffffffffffffffffffffffffffffffffff1673ffffffffffffffffffffffffffffffffffffffff1681526020019081526020016000206000016001604051808473ffffffffffffffffffffffffffffffffffffffff1673ffffffffffffffffffffffffffffffffffffffff1681526020018060200183151515158152602001828103825284818154600181600116156101000203166002900481526020019150805460018160011615610100020316600290048015611a895780601f10611a5e57610100808354040283529160200191611a89565b820191906000526020600020905b815481529060010190602001808311611a6c57829003601f168201915b505094505050505060405180910390a150565b6000809054906101000a900473ffffffffffffffffffffffffffffffffffffffff1673ffffffffffffffffffffffffffffffffffffffff163373ffffffffffffffffffffffffffffffffffffffff16141515611af757600080fd5b600060149054906101000a900460ff16151515611b1357600080fd5b600073ffffffffffffffffffffffffffffffffffffffff168173ffffffffffffffffffffffffffffffffffffffff1614151515611b4f57600080fd5b600160008273ffffffffffffffffffffffffffffffffffffffff1673ffffffffffffffffffffffffffffffffffffffff16815260200190815260200160002060009054906101000a900460ff1615611c09577f53d0035f6b28e97e97a51153d8a10195bb11195c78d4f1f54b90257dd4b5f24c81604051808273ffffffffffffffffffffffffffffffffffffffff1673ffffffffffffffffffffffffffffffffffffffff16815260200191505060405180910390a1611d2a565b60018060008373ffffffffffffffffffffffffffffffffffffffff1673ffffffffffffffffffffffffffffffffffffffff16815260200190815260200160002060006101000a81548160ff02191690831515021790555060028190806001815401808255809150509060018203906000526020600020016000909192909190916101000a81548173ffffffffffffffffffffffffffffffffffffffff021916908373ffffffffffffffffffffffffffffffffffffffff160217905550507f0c4e2d6b66bd305bcffd64765c550562e7aca7e57b5ac5f24a7ec8c64e7e5ab581604051808273ffffffffffffffffffffffffffffffffffffffff1673ffffffffffffffffffffffffffffffffffffffff16815260200191505060405180910390a15b50565b60008073ffffffffffffffffffffffffffffffffffffffff168273ffffffffffffffffffffffffffffffffffffffff1614151515611d6a57600080fd5b600360008373ffffffffffffffffffffffffffffffffffffffff1673ffffffffffffffffffffffffffffffffffffffff16815260200190815260200160002060010160009054906101000a900460ff161515611dc557600080fd5b600760008373ffffffffffffffffffffffffffffffffffffffff1673ffffffffffffffffffffffffffffffffffffffff168152602001908152602001600020549050919050565b6060806000806060600073ffffffffffffffffffffffffffffffffffffffff168873ffffffffffffffffffffffffffffffffffffffff1614151515611e5057600080fd5b60011515600360008a73ffffffffffffffffffffffffffffffffffffffff1673ffffffffffffffffffffffffffffffffffffffff16815260200190815260200160002060010160009054906101000a900460ff161515141515611eb257600080fd5b600860008973ffffffffffffffffffffffffffffffffffffffff1673ffffffffffffffffffffffffffffffffffffffff16815260200190815260200160002060008881526020019081526020016000206000878152602001908152602001600020600101600860008a73ffffffffffffffffffffffffffffffffffffffff1673ffffffffffffffffffffffffffffffffffffffff16815260200190815260200160002060008981526020019081526020016000206000888152602001908152602001600020600201600860008b73ffffffffffffffffffffffffffffffffffffffff1673ffffffffffffffffffffffffffffffffffffffff16815260200190815260200160002060008a8152602001908152602001600020600089815260200190815260200160002060030154600860008c73ffffffffffffffffffffffffffffffffffffffff1673ffffffffffffffffffffffffffffffffffffffff16815260200190815260200160002060008b815260200190815260200160002060008a815260200190815260200160002060040154600860008d73ffffffffffffffffffffffffffffffffffffffff1673ffffffffffffffffffffffffffffffffffffffff16815260200190815260200160002060008c815260200190815260200160002060008b8152602001908152602001600020600501848054600181600116156101000203166002900480601f01602080910402602001604051908101604052809291908181526020018280546001816001161561010002031660029004801561213d5780601f106121125761010080835404028352916020019161213d565b820191906000526020600020905b81548152906001019060200180831161212057829003601f168201915b50505050509450838054600181600116156101000203166002900480601f0160208091040260200160405190810160405280929190818152602001828054600181600116156101000203166002900480156121d95780601f106121ae576101008083540402835291602001916121d9565b820191906000526020600020905b8154815290600101906020018083116121bc57829003601f168201915b50505050509350808054600181600116156101000203166002900480601f0160208091040260200160405190810160405280929190818152602001828054600181600116156101000203166002900480156122755780601f1061224a57610100808354040283529160200191612275565b820191906000526020600020905b81548152906001019060200180831161225857829003601f168201915b5050505050905094509450945094509450939792965093509350565b600060011515600360003373ffffffffffffffffffffffffffffffffffffffff1673ffffffffffffffffffffffffffffffffffffffff16815260200190815260200160002060010160159054906101000a900460ff1615151415156122f557600080fd5b600b60003373ffffffffffffffffffffffffffffffffffffffff1673ffffffffffffffffffffffffffffffffffffffff16815260200190815260200160002054905090565b600060011515600360003373ffffffffffffffffffffffffffffffffffffffff1673ffffffffffffffffffffffffffffffffffffffff16815260200190815260200160002060010160159054906101000a900460ff16151514151561239e57600080fd5b3373ffffffffffffffffffffffffffffffffffffffff1631905090565b6000600960008473ffffffffffffffffffffffffffffffffffffffff1673ffffffffffffffffffffffffffffffffffffffff168152602001908152602001600020600083815260200190815260200160002054905092915050565b60011515600360003373ffffffffffffffffffffffffffffffffffffffff1673ffffffffffffffffffffffffffffffffffffffff16815260200190815260200160002060010160159054906101000a900460ff16151514151561247857600080fd5b600060149054906101000a900460ff1615151561249457600080fd5b60011515600360003373ffffffffffffffffffffffffffffffffffffffff1673ffffffffffffffffffffffffffffffffffffffff16815260200190815260200160002060010160009054906101000a900460ff1615151415156124f657600080fd5b73__library_mp____________________________63ed1a54db866040518263ffffffff167c01000000000000000000000000000000000000000000000000000000000281526004018080602001828103825283818151815260200191508051906020019080838360005b8381101561257c578082015181840152602081019050612561565b50505050905090810190601f1680156125a95780820380516001836020036101000a031916815260200191505b509250505060206040518083038186803b1580156125c657600080fd5b505af41580156125da573d6000803e3d6000fd5b505050506040513d60208110156125f057600080fd5b810190808051906020019092919050505015612676577f241f16a7c1a54b30580b0c457d83b34ac940e594e63e1e41d4149b1cb7342bbc3387604051808373ffffffffffffffffffffffffffffffffffffffff1673ffffffffffffffffffffffffffffffffffffffff1681526020018281526020019250505060405180910390a1612ae5565b6001831015151561268657600080fd5b6001821015151561269657600080fd5b60c0604051908101604052803373ffffffffffffffffffffffffffffffffffffffff16815260200186815260200185815260200184815260200183815260200182815250600860003373ffffffffffffffffffffffffffffffffffffffff1673ffffffffffffffffffffffffffffffffffffffff16815260200190815260200160002060008881526020019081526020016000206000600960003373ffffffffffffffffffffffffffffffffffffffff1673ffffffffffffffffffffffffffffffffffffffff16815260200190815260200160002060008a8152602001908152602001600020600081548092919060010191905055815260200190815260200160002060008201518160000160006101000a81548173ffffffffffffffffffffffffffffffffffffffff021916908373ffffffffffffffffffffffffffffffffffffffff16021790555060208201518160010190805190602001906127fc929190615bde565b506040820151816002019080519060200190612819929190615bde565b50606082015181600301556080820151816004015560a082015181600501908051906020019061284a929190615bde565b509050507f28d3ed160ab5857c108a8d796916247de35a9dde348094c6aca873b02a6961d033600660003373ffffffffffffffffffffffffffffffffffffffff1673ffffffffffffffffffffffffffffffffffffffff16815260200190815260200160002060008981526020019081526020016000206000018787878787604051808873ffffffffffffffffffffffffffffffffffffffff1673ffffffffffffffffffffffffffffffffffffffff1681526020018060200180602001806020018781526020018681526020018060200185810385528b81815460018160011615610100020316600290048152602001915080546001816001161561010002031660029004801561299b5780601f106129705761010080835404028352916020019161299b565b820191906000526020600020905b81548152906001019060200180831161297e57829003601f168201915b505085810384528a818151815260200191508051906020019080838360005b838110156129d55780820151818401526020810190506129ba565b50505050905090810190601f168015612a025780820380516001836020036101000a031916815260200191505b50858103835289818151815260200191508051906020019080838360005b83811015612a3b578082015181840152602081019050612a20565b50505050905090810190601f168015612a685780820380516001836020036101000a031916815260200191505b50858103825286818151815260200191508051906020019080838360005b83811015612aa1578082015181840152602081019050612a86565b50505050905090810190601f168015612ace5780820380516001836020036101000a031916815260200191505b509b50505050505050505050505060405180910390a15b505050505050565b60606002805480602002602001604051908101604052809291908181526020018280548015612b7157602002820191906000526020600020905b8160009054906101000a900473ffffffffffffffffffffffffffffffffffffffff1673ffffffffffffffffffffffffffffffffffffffff1681526020019060010190808311612b27575b5050505050905090565b60008060009054906101000a900473ffffffffffffffffffffffffffffffffffffffff1673ffffffffffffffffffffffffffffffffffffffff163373ffffffffffffffffffffffffffffffffffffffff16141515612bd857600080fd5b8173ffffffffffffffffffffffffffffffffffffffff166108fc612bfa6143f2565b9081150290604051600060405180830381858888f19350505050158015612c25573d6000803e3d6000fd5b50919050565b6000809054906101000a900473ffffffffffffffffffffffffffffffffffffffff1673ffffffffffffffffffffffffffffffffffffffff163373ffffffffffffffffffffffffffffffffffffffff16141515612c8657600080fd5b600060149054906101000a900460ff161515612ca157600080fd5b60008060146101000a81548160ff0219169083151502179055507f7805862f689e2f13df9f062ff482ad3ad112aca9e0847911ed832e158c525b3360405160405180910390a1565b60008060009054906101000a900473ffffffffffffffffffffffffffffffffffffffff1673ffffffffffffffffffffffffffffffffffffffff163373ffffffffffffffffffffffffffffffffffffffff161415612d495760009050612e07565b600160003373ffffffffffffffffffffffffffffffffffffffff1673ffffffffffffffffffffffffffffffffffffffff16815260200190815260200160002060009054906101000a900460ff1615612da45760019050612e07565b600360003373ffffffffffffffffffffffffffffffffffffffff1673ffffffffffffffffffffffffffffffffffffffff16815260200190815260200160002060010160159054906101000a900460ff1615612e025760029050612e07565b600390505b90565b6000809054906101000a900473ffffffffffffffffffffffffffffffffffffffff1673ffffffffffffffffffffffffffffffffffffffff163373ffffffffffffffffffffffffffffffffffffffff16141515612e6557600080fd5b6000809054906101000a900473ffffffffffffffffffffffffffffffffffffffff1673ffffffffffffffffffffffffffffffffffffffff16ff5b60016020528060005260406000206000915054906101000a900460ff1681565b600860205282600052604060002060205281600052604060002060205280600052604060002060009250925050508060000160009054906101000a900473ffffffffffffffffffffffffffffffffffffffff1690806001018054600181600116156101000203166002900480601f016020809104026020016040519081016040528092919081815260200182805460018160011615610100020316600290048015612fab5780601f10612f8057610100808354040283529160200191612fab565b820191906000526020600020905b815481529060010190602001808311612f8e57829003601f168201915b505050505090806002018054600181600116156101000203166002900480601f0160208091040260200160405190810160405280929190818152602001828054600181600116156101000203166002900480156130495780601f1061301e57610100808354040283529160200191613049565b820191906000526020600020905b81548152906001019060200180831161302c57829003601f168201915b505050505090806003015490806004015490806005018054600181600116156101000203166002900480601f0160208091040260200160405190810160405280929190818152602001828054600181600116156101000203166002900480156130f35780601f106130c8576101008083540402835291602001916130f3565b820191906000526020600020905b8154815290600101906020018083116130d657829003601f168201915b5050505050905086565b60011515600360003373ffffffffffffffffffffffffffffffffffffffff1673ffffffffffffffffffffffffffffffffffffffff16815260200190815260200160002060010160159054906101000a900460ff16151514151561315f57600080fd5b60011515600360003373ffffffffffffffffffffffffffffffffffffffff1673ffffffffffffffffffffffffffffffffffffffff16815260200190815260200160002060010160009054906101000a900460ff1615151415156131c157600080fd5b6001151573__library_mp____________________________63ed1a54db876040518263ffffffff167c01000000000000000000000000000000000000000000000000000000000281526004018080602001828103825283818151815260200191508051906020019080838360005b8381101561324b578082015181840152602081019050613230565b50505050905090810190601f1680156132785780820380516001836020036101000a031916815260200191505b509250505060206040518083038186803b15801561329557600080fd5b505af41580156132a9573d6000803e3d6000fd5b505050506040513d60208110156132bf57600080fd5b810190808051906020019092919050505015151415613350577f0a8dd191e7b7a52b4a10b9b067bf7e7672b5eb718ae03b0ef55e8ec1021f2628338888604051808473ffffffffffffffffffffffffffffffffffffffff1673ffffffffffffffffffffffffffffffffffffffff168152602001838152602001828152602001935050505060405180910390a16137d8565b6000600960003373ffffffffffffffffffffffffffffffffffffffff1673ffffffffffffffffffffffffffffffffffffffff168152602001908152602001600020600089815260200190815260200160002054141515156133b057600080fd5b600183101515156133c057600080fd5b600182101515156133d057600080fd5b84600860003373ffffffffffffffffffffffffffffffffffffffff1673ffffffffffffffffffffffffffffffffffffffff168152602001908152602001600020600089815260200190815260200160002060008881526020019081526020016000206001019080519060200190613448929190615c5e565b5083600860003373ffffffffffffffffffffffffffffffffffffffff1673ffffffffffffffffffffffffffffffffffffffff1681526020019081526020016000206000898152602001908152602001600020600088815260200190815260200160002060020190805190602001906134c1929190615c5e565b5082600860003373ffffffffffffffffffffffffffffffffffffffff1673ffffffffffffffffffffffffffffffffffffffff168152602001908152602001600020600089815260200190815260200160002060008881526020019081526020016000206003018190555081600860003373ffffffffffffffffffffffffffffffffffffffff1673ffffffffffffffffffffffffffffffffffffffff168152602001908152602001600020600089815260200190815260200160002060008881526020019081526020016000206004018190555080600860003373ffffffffffffffffffffffffffffffffffffffff1673ffffffffffffffffffffffffffffffffffffffff16815260200190815260200160002060008981526020019081526020016000206000888152602001908152602001600020600501908051906020019061360c929190615c5e565b507f4e68e1001584accedb47536cddbe7f56a7fc9cb0f8050af4e10daa1745095bc93388888888888888604051808973ffffffffffffffffffffffffffffffffffffffff1673ffffffffffffffffffffffffffffffffffffffff168152602001888152602001878152602001806020018060200186815260200185815260200180602001848103845289818151815260200191508051906020019080838360005b838110156136c85780820151818401526020810190506136ad565b50505050905090810190601f1680156136f55780820380516001836020036101000a031916815260200191505b50848103835288818151815260200191508051906020019080838360005b8381101561372e578082015181840152602081019050613713565b50505050905090810190601f16801561375b5780820380516001836020036101000a031916815260200191505b50848103825285818151815260200191508051906020019080838360005b83811015613794578082015181840152602081019050613779565b50505050905090810190601f1680156137c15780820380516001836020036101000a031916815260200191505b509b50505050505050505050505060405180910390a15b50505050505050565b6137e9615cde565b600060149054906101000a900460ff1615151561380557600080fd5b600360003373ffffffffffffffffffffffffffffffffffffffff1673ffffffffffffffffffffffffffffffffffffffff16815260200190815260200160002060010160159054906101000a900460ff16156138c2577fd9a560ebcdc6c61750193a7315305c8c055fd9089dea73669d29576bc3226f1e33604051808273ffffffffffffffffffffffffffffffffffffffff1673ffffffffffffffffffffffffffffffffffffffff16815260200191505060405180910390a1613d23565b73__library_mp____________________________63ed1a54db836040518263ffffffff167c01000000000000000000000000000000000000000000000000000000000281526004018080602001828103825283818151815260200191508051906020019080838360005b8381101561394857808201518184015260208101905061392d565b50505050905090810190601f1680156139755780820380516001836020036101000a031916815260200191505b509250505060206040518083038186803b15801561399257600080fd5b505af41580156139a6573d6000803e3d6000fd5b505050506040513d60208110156139bc57600080fd5b810190808051906020019092919050505015613ab4577f133715872e9b2882294ade7043576a1a8d1fb72bbb46e7c2264192ce5c3bcf5633836000604051808473ffffffffffffffffffffffffffffffffffffffff1673ffffffffffffffffffffffffffffffffffffffff1681526020018060200183151515158152602001828103825284818151815260200191508051906020019080838360005b83811015613a73578082015181840152602081019050613a58565b50505050905090810190601f168015613aa05780820380516001836020036101000a031916815260200191505b5094505050505060405180910390a1613d23565b608060405190810160405280838152602001600015158152602001600073ffffffffffffffffffffffffffffffffffffffff16815260200160011515815250905080600360003373ffffffffffffffffffffffffffffffffffffffff1673ffffffffffffffffffffffffffffffffffffffff1681526020019081526020016000206000820151816000019080519060200190613b51929190615bde565b5060208201518160010160006101000a81548160ff02191690831515021790555060408201518160010160016101000a81548173ffffffffffffffffffffffffffffffffffffffff021916908373ffffffffffffffffffffffffffffffffffffffff16021790555060608201518160010160156101000a81548160ff021916908315150217905550905050600160053390806001815401808255809150509060018203906000526020600020016000909192909190916101000a81548173ffffffffffffffffffffffffffffffffffffffff021916908373ffffffffffffffffffffffffffffffffffffffff16021790555050507f903da21572f52b08472df8a78f74843a6ad06435b0b957f429b91e729106d74f33836000604051808473ffffffffffffffffffffffffffffffffffffffff1673ffffffffffffffffffffffffffffffffffffffff1681526020018060200183151515158152602001828103825284818151815260200191508051906020019080838360005b83811015613ce6578082015181840152602081019050613ccb565b50505050905090810190601f168015613d135780820380516001836020036101000a031916815260200191505b5094505050505060405180910390a15b5050565b600060149054906101000a900460ff1681565b600060149054906101000a900460ff16151515613d5657600080fd5b600073ffffffffffffffffffffffffffffffffffffffff168573ffffffffffffffffffffffffffffffffffffffff1614151515613d9257600080fd5b60011515600360008773ffffffffffffffffffffffffffffffffffffffff1673ffffffffffffffffffffffffffffffffffffffff16815260200190815260200160002060010160009054906101000a900460ff161515141515613df457600080fd5b8473ffffffffffffffffffffffffffffffffffffffff16600860008773ffffffffffffffffffffffffffffffffffffffff1673ffffffffffffffffffffffffffffffffffffffff1681526020019081526020016000206000868152602001908152602001600020600085815260200190815260200160002060000160009054906101000a900473ffffffffffffffffffffffffffffffffffffffff1673ffffffffffffffffffffffffffffffffffffffff16141515613eb257600080fd5b60018110151515613ec257600080fd5b34818302141515613ed257600080fd5b60a0604051908101604052803373ffffffffffffffffffffffffffffffffffffffff16815260200185815260200184815260200183815260200182815250600a60008773ffffffffffffffffffffffffffffffffffffffff1673ffffffffffffffffffffffffffffffffffffffff1681526020019081526020016000206000600b60008973ffffffffffffffffffffffffffffffffffffffff1673ffffffffffffffffffffffffffffffffffffffff168152602001908152602001600020600081548092919060010191905055815260200190815260200160002060008201518160000160006101000a81548173ffffffffffffffffffffffffffffffffffffffff021916908373ffffffffffffffffffffffffffffffffffffffff1602179055506020820151816001015560408201518160020155606082015181600301556080820151816004015590505034600460008773ffffffffffffffffffffffffffffffffffffffff1673ffffffffffffffffffffffffffffffffffffffff1681526020019081526020016000206000828254019250508190555080600860008773ffffffffffffffffffffffffffffffffffffffff1673ffffffffffffffffffffffffffffffffffffffff16815260200190815260200160002060008681526020019081526020016000206000858152602001908152602001600020600401600082825403925050819055507f696e6f4b11ad9dbfb8232949ddb111ce76a7bb80dc382220512566d494d5d789338686868686604051808773ffffffffffffffffffffffffffffffffffffffff1673ffffffffffffffffffffffffffffffffffffffff1681526020018673ffffffffffffffffffffffffffffffffffffffff1673ffffffffffffffffffffffffffffffffffffffff168152602001858152602001848152602001838152602001828152602001965050505050505060405180910390a15050505050565b6060600080600060149054906101000a900460ff161515156141bd57600080fd5b600073ffffffffffffffffffffffffffffffffffffffff168473ffffffffffffffffffffffffffffffffffffffff16141515156141f957600080fd5b600360008573ffffffffffffffffffffffffffffffffffffffff1673ffffffffffffffffffffffffffffffffffffffff16815260200190815260200160002060010160159054906101000a900460ff16151561425457600080fd5b600360008573ffffffffffffffffffffffffffffffffffffffff1673ffffffffffffffffffffffffffffffffffffffff168152602001908152602001600020600001600360008673ffffffffffffffffffffffffffffffffffffffff1673ffffffffffffffffffffffffffffffffffffffff16815260200190815260200160002060010160009054906101000a900460ff16600360008773ffffffffffffffffffffffffffffffffffffffff1673ffffffffffffffffffffffffffffffffffffffff16815260200190815260200160002060010160019054906101000a900473ffffffffffffffffffffffffffffffffffffffff16828054600181600116156101000203166002900480601f0160208091040260200160405190810160405280929190818152602001828054600181600116156101000203166002900480156143de5780601f106143b3576101008083540402835291602001916143de565b820191906000526020600020905b8154815290600101906020018083116143c157829003601f168201915b505050505092509250925092509193909250565b60008060009054906101000a900473ffffffffffffffffffffffffffffffffffffffff1673ffffffffffffffffffffffffffffffffffffffff163373ffffffffffffffffffffffffffffffffffffffff1614151561444f57600080fd5b3073ffffffffffffffffffffffffffffffffffffffff1631905090565b600b6020528060005260406000206000915090505481565b600a602052816000526040600020602052806000526040600020600091509150508060000160009054906101000a900473ffffffffffffffffffffffffffffffffffffffff16908060010154908060020154908060030154908060040154905085565b6009602052816000526040600020602052806000526040600020600091509150505481565b60058181548110151561451b57fe5b906000526020600020016000915054906101000a900473ffffffffffffffffffffffffffffffffffffffff1681565b60046020528060005260406000206000915090505481565b6000809054906101000a900473ffffffffffffffffffffffffffffffffffffffff1673ffffffffffffffffffffffffffffffffffffffff163373ffffffffffffffffffffffffffffffffffffffff161415156145bd57600080fd5b600060149054906101000a900460ff161515156145d957600080fd5b6001600060146101000a81548160ff0219169083151502179055507f6985a02210a168e66602d3235cb6db0e70f92b3ba4d376a33c0f3d9434bff62560405160405180910390a1565b6000809054906101000a900473ffffffffffffffffffffffffffffffffffffffff1681565b606060058054806020026020016040519081016040528092919081815260200182805480156146cb57602002820191906000526020600020905b8160009054906101000a900473ffffffffffffffffffffffffffffffffffffffff1673ffffffffffffffffffffffffffffffffffffffff1681526020019060010190808311614681575b5050505050905090565b600060011515600360003373ffffffffffffffffffffffffffffffffffffffff1673ffffffffffffffffffffffffffffffffffffffff16815260200190815260200160002060010160159054906101000a900460ff16151514151561473957600080fd5b600060149054906101000a900460ff1615151561475557600080fd5b60011515600360003373ffffffffffffffffffffffffffffffffffffffff1673ffffffffffffffffffffffffffffffffffffffff16815260200190815260200160002060010160009054906101000a900460ff1615151415156147b757600080fd5b6000600960003373ffffffffffffffffffffffffffffffffffffffff1673ffffffffffffffffffffffffffffffffffffffff1681526020019081526020016000206000858152602001908152602001600020541415151561481757600080fd5b6001600960003373ffffffffffffffffffffffffffffffffffffffff1673ffffffffffffffffffffffffffffffffffffffff168152602001908152602001600020600085815260200190815260200160002054039050600860003373ffffffffffffffffffffffffffffffffffffffff1673ffffffffffffffffffffffffffffffffffffffff16815260200190815260200160002060008481526020019081526020016000206000828152602001908152602001600020600101600860003373ffffffffffffffffffffffffffffffffffffffff1673ffffffffffffffffffffffffffffffffffffffff168152602001908152602001600020600085815260200190815260200160002060008481526020019081526020016000206001019080546001816001161561010002031660029004614954929190615d21565b50600860003373ffffffffffffffffffffffffffffffffffffffff1673ffffffffffffffffffffffffffffffffffffffff16815260200190815260200160002060008481526020019081526020016000206000828152602001908152602001600020600201600860003373ffffffffffffffffffffffffffffffffffffffff1673ffffffffffffffffffffffffffffffffffffffff168152602001908152602001600020600085815260200190815260200160002060008481526020019081526020016000206002019080546001816001161561010002031660029004614a3c929190615d21565b50600860003373ffffffffffffffffffffffffffffffffffffffff1673ffffffffffffffffffffffffffffffffffffffff1681526020019081526020016000206000848152602001908152602001600020600082815260200190815260200160002060030154600860003373ffffffffffffffffffffffffffffffffffffffff1673ffffffffffffffffffffffffffffffffffffffff1681526020019081526020016000206000858152602001908152602001600020600084815260200190815260200160002060030181905550600860003373ffffffffffffffffffffffffffffffffffffffff1673ffffffffffffffffffffffffffffffffffffffff1681526020019081526020016000206000848152602001908152602001600020600082815260200190815260200160002060040154600860003373ffffffffffffffffffffffffffffffffffffffff1673ffffffffffffffffffffffffffffffffffffffff1681526020019081526020016000206000858152602001908152602001600020600084815260200190815260200160002060040181905550600860003373ffffffffffffffffffffffffffffffffffffffff1673ffffffffffffffffffffffffffffffffffffffff16815260200190815260200160002060008481526020019081526020016000206000828152602001908152602001600020600501600860003373ffffffffffffffffffffffffffffffffffffffff1673ffffffffffffffffffffffffffffffffffffffff168152602001908152602001600020600085815260200190815260200160002060008481526020019081526020016000206005019080546001816001161561010002031660029004614cbe929190615d21565b50600860003373ffffffffffffffffffffffffffffffffffffffff1673ffffffffffffffffffffffffffffffffffffffff16815260200190815260200160002060008481526020019081526020016000206000828152602001908152602001600020600080820160006101000a81549073ffffffffffffffffffffffffffffffffffffffff0219169055600182016000614d589190615da8565b600282016000614d689190615da8565b60038201600090556004820160009055600582016000614d889190615da8565b5050600960003373ffffffffffffffffffffffffffffffffffffffff1673ffffffffffffffffffffffffffffffffffffffff168152602001908152602001600020600084815260200190815260200160002060008154809291906001900391905055507f64ffc1eba529ef4aedb570011a614e1816c23d719625503b1213209df26f6bdd338484604051808473ffffffffffffffffffffffffffffffffffffffff1673ffffffffffffffffffffffffffffffffffffffff168152602001838152602001828152602001935050505060405180910390a1505050565b6000806000606060008060008060011515600360003373ffffffffffffffffffffffffffffffffffffffff1673ffffffffffffffffffffffffffffffffffffffff16815260200190815260200160002060010160159054906101000a900460ff161515141515614ed257600080fd5b600a60003373ffffffffffffffffffffffffffffffffffffffff1673ffffffffffffffffffffffffffffffffffffffff16815260200190815260200160002060008a8152602001908152602001600020600101549150600a60003373ffffffffffffffffffffffffffffffffffffffff1673ffffffffffffffffffffffffffffffffffffffff16815260200190815260200160002060008a8152602001908152602001600020600201549050600a60003373ffffffffffffffffffffffffffffffffffffffff1673ffffffffffffffffffffffffffffffffffffffff16815260200190815260200160002060008a815260200190815260200160002060000160009054906101000a900473ffffffffffffffffffffffffffffffffffffffff16600a60003373ffffffffffffffffffffffffffffffffffffffff1673ffffffffffffffffffffffffffffffffffffffff16815260200190815260200160002060008b815260200190815260200160002060010154600a60003373ffffffffffffffffffffffffffffffffffffffff1673ffffffffffffffffffffffffffffffffffffffff16815260200190815260200160002060008c815260200190815260200160002060020154600860003373ffffffffffffffffffffffffffffffffffffffff1673ffffffffffffffffffffffffffffffffffffffff16815260200190815260200160002060008681526020019081526020016000206000858152602001908152602001600020600101600a60003373ffffffffffffffffffffffffffffffffffffffff1673ffffffffffffffffffffffffffffffffffffffff16815260200190815260200160002060008e815260200190815260200160002060030154600a60003373ffffffffffffffffffffffffffffffffffffffff1673ffffffffffffffffffffffffffffffffffffffff16815260200190815260200160002060008f815260200190815260200160002060040154828054600181600116156101000203166002900480601f01602080910402602001604051908101604052809291908181526020018280546001816001161561010002031660029004801561523b5780601f106152105761010080835404028352916020019161523b565b820191906000526020600020905b81548152906001019060200180831161521e57829003601f168201915b50505050509250975097509750975097509750505091939550919395565b6003602052806000526040600020600091509050806000018054600181600116156101000203166002900480601f0160208091040260200160405190810160405280929190818152602001828054600181600116156101000203166002900480156153055780601f106152da57610100808354040283529160200191615305565b820191906000526020600020905b8154815290600101906020018083116152e857829003601f168201915b5050505050908060010160009054906101000a900460ff16908060010160019054906101000a900473ffffffffffffffffffffffffffffffffffffffff16908060010160159054906101000a900460ff16905084565b600660205281600052604060002060205280600052604060002060009150915050806000018054600181600116156101000203166002900480601f0160208091040260200160405190810160405280929190818152602001828054600181600116156101000203166002900480156154145780601f106153e957610100808354040283529160200191615414565b820191906000526020600020905b8154815290600101906020018083116153f757829003601f168201915b5050505050905081565b60076020528060005260406000206000915090505481565b600060011515600360003373ffffffffffffffffffffffffffffffffffffffff1673ffffffffffffffffffffffffffffffffffffffff16815260200190815260200160002060010160159054906101000a900460ff16151514151561549a57600080fd5b600060149054906101000a900460ff161515156154b657600080fd5b600460003373ffffffffffffffffffffffffffffffffffffffff1673ffffffffffffffffffffffffffffffffffffffff16815260200190815260200160002054905090565b60011515600360003373ffffffffffffffffffffffffffffffffffffffff1673ffffffffffffffffffffffffffffffffffffffff16815260200190815260200160002060010160159054906101000a900460ff16151514151561555d57600080fd5b600060149054906101000a900460ff1615151561557957600080fd5b60011515600360003373ffffffffffffffffffffffffffffffffffffffff1673ffffffffffffffffffffffffffffffffffffffff16815260200190815260200160002060010160009054906101000a900460ff1615151415156155db57600080fd5b73__library_mp____________________________63ed1a54db826040518263ffffffff167c01000000000000000000000000000000000000000000000000000000000281526004018080602001828103825283818151815260200191508051906020019080838360005b83811015615661578082015181840152602081019050615646565b50505050905090810190601f16801561568e5780820380516001836020036101000a031916815260200191505b509250505060206040518083038186803b1580156156ab57600080fd5b505af41580156156bf573d6000803e3d6000fd5b505050506040513d60208110156156d557600080fd5b810190808051906020019092919050505015615753577fb027bd50c74e62f2950b329db49ab3d625f22f621596c187c51cb21a75fe10f233604051808273ffffffffffffffffffffffffffffffffffffffff1673ffffffffffffffffffffffffffffffffffffffff16815260200191505060405180910390a16158f1565b60206040519081016040528082815250600660003373ffffffffffffffffffffffffffffffffffffffff1673ffffffffffffffffffffffffffffffffffffffff1681526020019081526020016000206000600760003373ffffffffffffffffffffffffffffffffffffffff1673ffffffffffffffffffffffffffffffffffffffff1681526020019081526020016000206000815480929190600101919050558152602001908152602001600020600082015181600001908051906020019061581c929190615bde565b509050507fa170d58d6ec782694dcb5a0be7079fe0339e825897c216add10ddbf0b2ddc4143382604051808373ffffffffffffffffffffffffffffffffffffffff1673ffffffffffffffffffffffffffffffffffffffff16815260200180602001828103825283818151815260200191508051906020019080838360005b838110156158b557808201518184015260208101905061589a565b50505050905090810190601f1680156158e25780820380516001836020036101000a031916815260200191505b50935050505060405180910390a15b50565b606060008073ffffffffffffffffffffffffffffffffffffffff168473ffffffffffffffffffffffffffffffffffffffff161415151561593357600080fd5b600360008573ffffffffffffffffffffffffffffffffffffffff1673ffffffffffffffffffffffffffffffffffffffff16815260200190815260200160002060010160159054906101000a900460ff16151561598e57600080fd5b600660008573ffffffffffffffffffffffffffffffffffffffff1673ffffffffffffffffffffffffffffffffffffffff168152602001908152602001600020600084815260200190815260200160002060000183818054600181600116156101000203166002900480601f016020809104026020016040519081016040528092919081815260200182805460018160011615610100020316600290048015615a775780601f10615a4c57610100808354040283529160200191615a77565b820191906000526020600020905b815481529060010190602001808311615a5a57829003601f168201915b50505050509150915091509250929050565b6000809054906101000a900473ffffffffffffffffffffffffffffffffffffffff1673ffffffffffffffffffffffffffffffffffffffff163373ffffffffffffffffffffffffffffffffffffffff16141515615ae457600080fd5b600073ffffffffffffffffffffffffffffffffffffffff168173ffffffffffffffffffffffffffffffffffffffff1614151515615b2057600080fd5b8073ffffffffffffffffffffffffffffffffffffffff166000809054906101000a900473ffffffffffffffffffffffffffffffffffffffff1673ffffffffffffffffffffffffffffffffffffffff167f8be0079c531659141344cd1fd0a4f28419497f9722a3daafe3b4186f6b6457e060405160405180910390a3806000806101000a81548173ffffffffffffffffffffffffffffffffffffffff021916908373ffffffffffffffffffffffffffffffffffffffff16021790555050565b828054600181600116156101000203166002900490600052602060002090601f016020900481019282601f10615c1f57805160ff1916838001178555615c4d565b82800160010185558215615c4d579182015b82811115615c4c578251825591602001919060010190615c31565b5b509050615c5a9190615df0565b5090565b828054600181600116156101000203166002900490600052602060002090601f016020900481019282601f10615c9f57805160ff1916838001178555615ccd565b82800160010185558215615ccd579182015b82811115615ccc578251825591602001919060010190615cb1565b5b509050615cda9190615df0565b5090565b60806040519081016040528060608152602001600015158152602001600073ffffffffffffffffffffffffffffffffffffffff1681526020016000151581525090565b828054600181600116156101000203166002900490600052602060002090601f016020900481019282601f10615d5a5780548555615d97565b82800160010185558215615d9757600052602060002091601f016020900482015b82811115615d96578254825591600101919060010190615d7b565b5b509050615da49190615df0565b5090565b50805460018160011615610100020316600290046000825580601f10615dce5750615ded565b601f016020900490600052602060002090810190615dec9190615df0565b5b50565b615e1291905b80821115615e0e576000816000905550600101615df6565b5090565b905600a165627a7a72305820c90b5370a24914fc436f4e9eccf7ed2edf5d7d726509790483ebca32c1a2adcb0029",
  "source": "pragma solidity ^0.4.24;\r\n\r\nimport './fronts_mp.sol';\r\n\r\n/**\r\n * author: Rajenda Maharjan\r\n * @title marketplace\r\n * @dev marketplace contract has all product information and order functions.\r\n */\r\ncontract marketplace is fronts_mp {\r\n   /**\r\n    * @dev using SafeMath\r\n    */\r\n    using SafeMath for uint256;\r\n    /**\r\n     * @dev marketplace constructor\r\n     * This constructor can be use if contractor want to assign admin while deploying contract\r\n     */\r\n    /*\r\n    constructor(address _adminAddress) public {\r\n        if(_adminAddress != address(0))\r\n            addNewAdmin(_adminAddress);\r\n    }    \r\n    */\r\n    /**\r\n     * @dev Product structure\r\n     * The struct has seller address, product name, product detail, product unit price, quantity available and ipfs image link\r\n     */\r\n    struct Product {\r\n        address seller;\r\n        string name;\r\n        string p_detail;\r\n        uint unit_price;\r\n        uint quantity;\r\n        string image_link_ipfs;      //IPFS Image link\r\n    }\r\n    /**\r\n     * @dev mapping for the products from store owner address-> front id -> product id\r\n     */\r\n    mapping (address => mapping(uint => mapping(uint => Product))) public products;\r\n    \r\n    /**\r\n     * @dev mapping for the product count from store owner address -> front id\r\n     */\r\n    mapping (address => mapping(uint => uint)) public productCount;\r\n    \r\n    /**\r\n     * @dev insert product event\r\n     */\r\n    event newProductInserted(address store_owner, string storefront_name, string product_name, string p_detail,\r\n    uint unit_price, uint quantity, string image_link_ipfs);\r\n    \r\n    /**\r\n     * @dev log empty product name while inserting\r\n     */\r\n    event emptyProductNameOnInsert(address store_owner, uint front_id);\r\n    \r\n    /**\r\n     * @dev update product event\r\n     */\r\n    event productUpdate(address store_owner, uint front_id, uint product_id, string name, string p_detail,\r\n    uint unit_price, uint quantity, string image_link_ipfs);\r\n    \r\n    /**\r\n     * @dev product doesn't exist\r\n     */\r\n    event productNotExist(address store_owner, uint front_id, uint product_id, string name);        \r\n    \r\n    /**\r\n     * @dev product delete event\r\n     */\r\n    event deleteAProduct(address store_owner, uint front_id, uint product_id);\r\n    \r\n    /**\r\n     * @dev log empty product name while product update\r\n     */\r\n    event emptyProductNameOnUpdate(address store_owner, uint front_id, uint product_id);\r\n    \r\n    /**\r\n     * @dev add new product method. Only seller/store owner can add\r\n     * params: _front_id:front id, _name:product name, _p_detail:product detail,\r\n     *  _unit_price: product unit price, _quantity: product quantity available for sale,\r\n     *  _image_link_ipfs: ipfs image link\r\n     */\r\n    function addNewProduct(uint _front_id, string _name, string _p_detail,\r\n        uint _unit_price, uint _quantity, string _image_link_ipfs) public onlyStoreOwner whenNotPaused\r\n    {\r\n        //Make sure store owner is valid and approved\r\n        require(store_owners[msg.sender].isApproved == true);\r\n        //Check for empty product name\r\n        if(library_mp.IsEmptyString(_name))\r\n        {\r\n            emit emptyProductNameOnInsert(msg.sender, _front_id);\r\n            return;\r\n        }\r\n        //unit price should be greater than 0\r\n        require(_unit_price>=1);\r\n        //quantity should be greater than 0\r\n        require(_quantity>=1);\r\n        products[msg.sender][_front_id][productCount[msg.sender][_front_id]++] =\r\n            Product(msg.sender,_name, _p_detail, _unit_price, _quantity, _image_link_ipfs);\r\n        \r\n        emit newProductInserted(msg.sender, fronts[msg.sender][_front_id].front_name, _name, _p_detail,\r\n                _unit_price, _quantity, _image_link_ipfs);\r\n    }\r\n    \r\n    /**\r\n     * @dev update product information and product price. Only seller/store owner can update their stuffs\r\n     * params: _front_id:front id, _product_id: product id, _name: product name, _p_detail:product detail,\r\n     *  _unit_price: product unit price, _quantity: product quantity available for sale,\r\n     *  _image_link_ipfs: ipfs image link\r\n     */\r\n    //Update Product information with _unit_price\r\n    function updateProduct(uint _front_id, uint _product_id, string _name, string _p_detail,\r\n            uint _unit_price, uint _quantity, string _image_link_ipfs) public onlyStoreOwner {\r\n            //Make sure store owner is valid and approved\r\n            require(store_owners[msg.sender].isApproved == true);\r\n            //Make sure product name is not empty\r\n            if(library_mp.IsEmptyString(_name)==true)\r\n            {\r\n                emit emptyProductNameOnUpdate(msg.sender, _front_id, _product_id);\r\n                return;\r\n            }\r\n            //Count Product count should not be 0\r\n            require(productCount[msg.sender][_front_id] != 0);\r\n            //unit price should be greater than 0\r\n            require(_unit_price>=1);\r\n            //quantity should be greater than 0\r\n            require(_quantity>=1);\r\n\r\n            products[msg.sender][_front_id][_product_id].name = _name;\r\n            products[msg.sender][_front_id][_product_id].p_detail = _p_detail;\r\n            products[msg.sender][_front_id][_product_id].unit_price = _unit_price;\r\n            products[msg.sender][_front_id][_product_id].quantity = _quantity;\r\n            products[msg.sender][_front_id][_product_id].image_link_ipfs = _image_link_ipfs;\r\n            //product update event\r\n            emit productUpdate(msg.sender, _front_id, _product_id, _name, _p_detail,\r\n                    _unit_price, _quantity, _image_link_ipfs);\r\n    }\r\n    /**\r\n     * @dev delete product information. Only seller/store owner can delete their stuffs\r\n     * params: _front_id:front id, _product_id: product id\r\n     */\r\n    function deleteProduct(uint _front_id, uint _product_id) public onlyStoreOwner whenNotPaused  {\r\n        //Make sure store owner is valid and approved\r\n        require(store_owners[msg.sender].isApproved == true);\r\n        //Make sure product count is not 0\r\n        require(productCount[msg.sender][_front_id] != 0);\r\n        /**\r\n         * @dev Delete operation\r\n         * Applying delete operation as sample code I created at \r\n         * https://github.com/rmpasha/delete-struct-mapping/blob/master/soldity_delete_code\r\n         */\r\n        //First move lastIndex item to the deleting item index to replace it.\r\n        uint lastIndex=productCount[msg.sender][_front_id]-1;\r\n        products[msg.sender][_front_id][_product_id].name = products[msg.sender][_front_id][lastIndex].name;\r\n        products[msg.sender][_front_id][_product_id].p_detail = products[msg.sender][_front_id][lastIndex].p_detail;\r\n        products[msg.sender][_front_id][_product_id].unit_price = products[msg.sender][_front_id][lastIndex].unit_price;\r\n        products[msg.sender][_front_id][_product_id].quantity = products[msg.sender][_front_id][lastIndex].quantity;\r\n        products[msg.sender][_front_id][_product_id].image_link_ipfs = products[msg.sender][_front_id][lastIndex].image_link_ipfs;\r\n        //Delete last item\r\n        delete products[msg.sender][_front_id][lastIndex];\r\n        //Decrease product count by 1\r\n        productCount[msg.sender][_front_id]--;\r\n        //event for delete product notice\r\n        emit deleteAProduct(msg.sender, _front_id, _product_id);\r\n    }\r\n    /**\r\n     * @dev To get product count by store front and store owner\r\n     * params: _front_id:front id and store owner will be pass by default\r\n     */\r\n    function getProductCountByFront(address _storeOwnerAddress, uint _front_id) public view returns(uint) {\r\n        return productCount[_storeOwnerAddress][_front_id];\r\n    }\r\n    /**\r\n     * @dev To get product details by store owner, store front id and product id\r\n     * params: _storeOwnerAddress: store owner address, _front_id: front id, _product_id: product id\r\n     * returns: product row\r\n     */\r\n    function getEachProductByOwner(address _storeOwnerAddress, uint _front_id, uint _product_id) public view\r\n        returns(string, string, uint, uint, string)\r\n    {\r\n        require(_storeOwnerAddress!=address(0));\r\n        //require(store_owners[_storeOwnerAddress].flag);\r\n        require(store_owners[_storeOwnerAddress].isApproved == true);\r\n\r\n        return(products[_storeOwnerAddress][_front_id][_product_id].name,\r\n                products[_storeOwnerAddress][_front_id][_product_id].p_detail,\r\n                products[_storeOwnerAddress][_front_id][_product_id].unit_price,\r\n                products[_storeOwnerAddress][_front_id][_product_id].quantity,\r\n                products[_storeOwnerAddress][_front_id][_product_id].image_link_ipfs);\r\n    }\r\n\r\n    /**\r\n     * @dev Order transactions structure\r\n     * The struct has buyer address, store front id, product id, unit price and quantity\r\n     */\r\n    struct OrderTrans {\r\n        address buyer;\r\n        //address seller;\r\n        uint front_id;\r\n        uint product_id;\r\n        uint unit_price;\r\n        uint quantity;\r\n    }\r\n    /**\r\n     * @dev mapping to track the orders. mapping from seller=> OrderTrans struct\r\n     */\r\n    mapping (address => mapping(uint => OrderTrans)) public orders;\r\n    \r\n    /**\r\n     * @dev mapping to track the order count by seller\r\n     */\r\n    mapping (address => uint) public orderCount;\r\n    \r\n    //new order transaction event\r\n    event newOrder(address buyer, address seller, uint front_id, uint product_id, uint unit_price, uint quantity);\r\n    /**\r\n     * @dev order any item. anybody can order. \r\n     *      the amount will transfer to contract address.\r\n     *      the ordered count will deduct from the inventory.\r\n     * params: seller: store owner address, _front_id:front id, _product_id:product id\r\n     *  _unit_price:product unit price, _quantity: order quantity\r\n     */\r\n    function orderItems(address _seller, uint _front_id, uint _product_id, uint _unit_price, \r\n        uint _order_quantity) public payable whenNotPaused {\r\n            //make sure valid seller address\r\n            require(_seller != address(0));\r\n            //make sure seller address has been approved to start the store\r\n            require(store_owners[_seller].isApproved==true);\r\n            //make sure the item belongs to this seller or not\r\n            require(products[_seller][_front_id][_product_id].seller == _seller);\r\n            //make sure minimum order quantity is 1 or more\r\n            require(_order_quantity >= 1);\r\n            //make sure the user send the ether that is same the value of price x ordered quantity\r\n            require(_unit_price * _order_quantity == msg.value);\r\n            //insert order transaction\r\n            orders[_seller][orderCount[_seller]++] = OrderTrans(msg.sender, _front_id, _product_id, _unit_price, _order_quantity);\r\n            //By default all sold amount will deposit in contract account. But we make sure how much amount sold by the seller.\r\n            store_owner_balances[_seller] += msg.value;\r\n            //If we change to send the amount directly to the seller from the begining use following commented code\r\n            //_seller.transfer(msg.value);\r\n            //deduct the number of sold quantity from inventory\r\n            products[_seller][_front_id][_product_id].quantity -= _order_quantity;\r\n            //event for new order notice\r\n            emit newOrder(msg.sender, _seller, _front_id, _product_id, _unit_price, _order_quantity);\r\n    }\r\n    /**\r\n     * @dev To get oder row by the seller\r\n     * params: order_id\r\n     * returns: buyer address, front_id, product_id, name(product name), unit_price, order quantity\r\n     *      If I return front name, it will have \"Stack too deep error\", so, not returning front name\r\n     */    \r\n    function getOrdersBySeller(uint order_id) public view onlyStoreOwner \r\n        returns(address, uint, uint, string, uint, uint) {\r\n            uint _front_id = orders[msg.sender][order_id].front_id;\r\n            uint _product_id = orders[msg.sender][order_id].product_id;\r\n            return(orders[msg.sender][order_id].buyer, \r\n                orders[msg.sender][order_id].front_id, \r\n                //fronts[msg.sender][_front_id].front_name,\r\n                orders[msg.sender][order_id].product_id,\r\n                products[msg.sender][_front_id][_product_id].name,\r\n                orders[msg.sender][order_id].unit_price, \r\n                orders[msg.sender][order_id].quantity);\r\n    }\r\n    /**\r\n     * @dev To get order count by seller\r\n     * returns: order count of current seller\r\n     */  \r\n    function getOrderCountBySeller() public view onlyStoreOwner returns(uint)\r\n    {\r\n        return orderCount[msg.sender];\r\n    }\r\n}",
  "sourcePath": "I:\\test\\rajmahar_mp1\\marketplace\\contracts\\marketplace.sol",
  "compiler": {
    "name": "solc",
    "version": "0.4.24+commit.e67f0147.Emscripten.clang"
  },
  "schemaVersion": "2.0.1",
  "updatedAt": "2018-08-27T22:32:14.157Z"
}