{
  "contractName": "products_mp",
  "abi": [
    {
      "constant": true,
      "inputs": [],
      "name": "GetAllStoreAddresses",
      "outputs": [
        {
          "name": "",
          "type": "address[]"
        }
      ],
      "payable": false,
      "stateMutability": "view",
      "type": "function"
    },
    {
      "constant": true,
      "inputs": [
        {
          "name": "_storeOwnerAddress",
          "type": "address"
        }
      ],
      "name": "GetStoreByAddress",
      "outputs": [
        {
          "name": "",
          "type": "string"
        },
        {
          "name": "",
          "type": "bool"
        },
        {
          "name": "",
          "type": "address"
        }
      ],
      "payable": false,
      "stateMutability": "view",
      "type": "function"
    },
    {
      "constant": false,
      "inputs": [],
      "name": "unpause",
      "outputs": [],
      "payable": false,
      "stateMutability": "nonpayable",
      "type": "function"
    },
    {
      "constant": false,
      "inputs": [],
      "name": "kill",
      "outputs": [],
      "payable": false,
      "stateMutability": "nonpayable",
      "type": "function"
    },
    {
      "constant": true,
      "inputs": [
        {
          "name": "",
          "type": "address"
        }
      ],
      "name": "admins",
      "outputs": [
        {
          "name": "",
          "type": "bool"
        }
      ],
      "payable": false,
      "stateMutability": "view",
      "type": "function"
    },
    {
      "constant": true,
      "inputs": [
        {
          "name": "_storeOwnerAddress",
          "type": "address"
        },
        {
          "name": "_front_index",
          "type": "uint256"
        }
      ],
      "name": "GetEachFront",
      "outputs": [
        {
          "name": "",
          "type": "string"
        },
        {
          "name": "",
          "type": "bool"
        }
      ],
      "payable": false,
      "stateMutability": "view",
      "type": "function"
    },
    {
      "constant": false,
      "inputs": [
        {
          "name": "_storeOwnerAddress",
          "type": "address"
        }
      ],
      "name": "ApproveStoreByAdmin",
      "outputs": [],
      "payable": false,
      "stateMutability": "nonpayable",
      "type": "function"
    },
    {
      "constant": true,
      "inputs": [],
      "name": "paused",
      "outputs": [
        {
          "name": "",
          "type": "bool"
        }
      ],
      "payable": false,
      "stateMutability": "view",
      "type": "function"
    },
    {
      "constant": true,
      "inputs": [
        {
          "name": "_front_index",
          "type": "uint256"
        }
      ],
      "name": "GetFrontByOwner",
      "outputs": [
        {
          "name": "",
          "type": "string"
        },
        {
          "name": "",
          "type": "bool"
        }
      ],
      "payable": false,
      "stateMutability": "view",
      "type": "function"
    },
    {
      "constant": true,
      "inputs": [
        {
          "name": "",
          "type": "uint256"
        }
      ],
      "name": "storeOwnerAddresses",
      "outputs": [
        {
          "name": "",
          "type": "address"
        }
      ],
      "payable": false,
      "stateMutability": "view",
      "type": "function"
    },
    {
      "constant": false,
      "inputs": [],
      "name": "pause",
      "outputs": [],
      "payable": false,
      "stateMutability": "nonpayable",
      "type": "function"
    },
    {
      "constant": true,
      "inputs": [],
      "name": "owner",
      "outputs": [
        {
          "name": "",
          "type": "address"
        }
      ],
      "payable": false,
      "stateMutability": "view",
      "type": "function"
    },
    {
      "constant": false,
      "inputs": [
        {
          "name": "_front_name",
          "type": "string"
        }
      ],
      "name": "InsertStorefront",
      "outputs": [],
      "payable": false,
      "stateMutability": "nonpayable",
      "type": "function"
    },
    {
      "constant": false,
      "inputs": [
        {
          "name": "_store_name",
          "type": "string"
        }
      ],
      "name": "SetANewStore",
      "outputs": [],
      "payable": false,
      "stateMutability": "nonpayable",
      "type": "function"
    },
    {
      "constant": false,
      "inputs": [
        {
          "name": "_adminAddress",
          "type": "address"
        }
      ],
      "name": "AddNewAdmin",
      "outputs": [
        {
          "name": "",
          "type": "bool"
        }
      ],
      "payable": false,
      "stateMutability": "nonpayable",
      "type": "function"
    },
    {
      "constant": true,
      "inputs": [
        {
          "name": "strParam",
          "type": "string"
        }
      ],
      "name": "IsEmptyString",
      "outputs": [
        {
          "name": "",
          "type": "bool"
        }
      ],
      "payable": false,
      "stateMutability": "pure",
      "type": "function"
    },
    {
      "constant": false,
      "inputs": [
        {
          "name": "newOwner",
          "type": "address"
        }
      ],
      "name": "transferOwnership",
      "outputs": [],
      "payable": false,
      "stateMutability": "nonpayable",
      "type": "function"
    },
    {
      "constant": false,
      "inputs": [
        {
          "name": "_storeOwnerAddress",
          "type": "address"
        }
      ],
      "name": "deleteStore",
      "outputs": [],
      "payable": false,
      "stateMutability": "nonpayable",
      "type": "function"
    },
    {
      "constant": true,
      "inputs": [],
      "name": "GetStorefrontCountByOwner",
      "outputs": [
        {
          "name": "",
          "type": "uint256"
        }
      ],
      "payable": false,
      "stateMutability": "view",
      "type": "function"
    },
    {
      "anonymous": false,
      "inputs": [
        {
          "indexed": false,
          "name": "store_owner",
          "type": "address"
        },
        {
          "indexed": false,
          "name": "storefront_name",
          "type": "string"
        },
        {
          "indexed": false,
          "name": "product_name",
          "type": "string"
        },
        {
          "indexed": false,
          "name": "category",
          "type": "string"
        },
        {
          "indexed": false,
          "name": "description",
          "type": "string"
        },
        {
          "indexed": false,
          "name": "unit_price",
          "type": "uint256"
        },
        {
          "indexed": false,
          "name": "quantity",
          "type": "uint256"
        },
        {
          "indexed": false,
          "name": "image_link_ipfs",
          "type": "string"
        }
      ],
      "name": "NewProductInserted",
      "type": "event"
    },
    {
      "anonymous": false,
      "inputs": [
        {
          "indexed": false,
          "name": "store_owner",
          "type": "address"
        },
        {
          "indexed": false,
          "name": "storefront_name",
          "type": "string"
        }
      ],
      "name": "EmptyProductName",
      "type": "event"
    },
    {
      "anonymous": false,
      "inputs": [
        {
          "indexed": false,
          "name": "store_owner",
          "type": "address"
        },
        {
          "indexed": false,
          "name": "storefront_name",
          "type": "string"
        },
        {
          "indexed": false,
          "name": "product_name",
          "type": "string"
        },
        {
          "indexed": false,
          "name": "description",
          "type": "string"
        },
        {
          "indexed": false,
          "name": "unit_price",
          "type": "uint256"
        },
        {
          "indexed": false,
          "name": "quantity",
          "type": "uint256"
        },
        {
          "indexed": false,
          "name": "image_link_ipfs",
          "type": "string"
        }
      ],
      "name": "ProductUpdate",
      "type": "event"
    },
    {
      "anonymous": false,
      "inputs": [
        {
          "indexed": false,
          "name": "store_owner",
          "type": "address"
        },
        {
          "indexed": false,
          "name": "storefront_name",
          "type": "string"
        },
        {
          "indexed": false,
          "name": "product_name",
          "type": "string"
        }
      ],
      "name": "LogProductNotExist",
      "type": "event"
    },
    {
      "anonymous": false,
      "inputs": [
        {
          "indexed": false,
          "name": "store_owner",
          "type": "address"
        },
        {
          "indexed": false,
          "name": "storefront_name",
          "type": "string"
        },
        {
          "indexed": false,
          "name": "product_name",
          "type": "string"
        }
      ],
      "name": "LogDeleteProduct",
      "type": "event"
    },
    {
      "anonymous": false,
      "inputs": [
        {
          "indexed": false,
          "name": "store_owner",
          "type": "address"
        },
        {
          "indexed": false,
          "name": "front_name",
          "type": "string"
        }
      ],
      "name": "NewStorefrontInserted",
      "type": "event"
    },
    {
      "anonymous": false,
      "inputs": [
        {
          "indexed": false,
          "name": "store_owner",
          "type": "address"
        }
      ],
      "name": "EmptyStoreFrontName",
      "type": "event"
    },
    {
      "anonymous": false,
      "inputs": [
        {
          "indexed": false,
          "name": "store_owner",
          "type": "address"
        },
        {
          "indexed": false,
          "name": "store_name",
          "type": "string"
        },
        {
          "indexed": false,
          "name": "isApproved",
          "type": "bool"
        }
      ],
      "name": "EmptyStoreNameEvent",
      "type": "event"
    },
    {
      "anonymous": false,
      "inputs": [
        {
          "indexed": false,
          "name": "store_owner",
          "type": "address"
        }
      ],
      "name": "StoreAlreadyExistEvent",
      "type": "event"
    },
    {
      "anonymous": false,
      "inputs": [
        {
          "indexed": false,
          "name": "store_owner",
          "type": "address"
        },
        {
          "indexed": false,
          "name": "store_name",
          "type": "string"
        },
        {
          "indexed": false,
          "name": "isApproved",
          "type": "bool"
        }
      ],
      "name": "NewStoreApplicationEvent",
      "type": "event"
    },
    {
      "anonymous": false,
      "inputs": [
        {
          "indexed": false,
          "name": "store_owner",
          "type": "address"
        },
        {
          "indexed": false,
          "name": "store_name",
          "type": "string"
        },
        {
          "indexed": false,
          "name": "isApproved",
          "type": "bool"
        }
      ],
      "name": "ApproveStoreApplicationEvent",
      "type": "event"
    },
    {
      "anonymous": false,
      "inputs": [
        {
          "indexed": false,
          "name": "addAdmin",
          "type": "address"
        }
      ],
      "name": "NewAdminEvent",
      "type": "event"
    },
    {
      "anonymous": false,
      "inputs": [
        {
          "indexed": false,
          "name": "addAdmin",
          "type": "address"
        }
      ],
      "name": "AdminAlreadyExistEvent",
      "type": "event"
    },
    {
      "anonymous": false,
      "inputs": [],
      "name": "Pause",
      "type": "event"
    },
    {
      "anonymous": false,
      "inputs": [],
      "name": "Unpause",
      "type": "event"
    },
    {
      "anonymous": false,
      "inputs": [
        {
          "indexed": true,
          "name": "previousOwner",
          "type": "address"
        },
        {
          "indexed": true,
          "name": "newOwner",
          "type": "address"
        }
      ],
      "name": "OwnershipTransferred",
      "type": "event"
    },
    {
      "constant": false,
      "inputs": [
        {
          "name": "_front_id",
          "type": "uint256"
        },
        {
          "name": "_name",
          "type": "string"
        },
        {
          "name": "_category",
          "type": "string"
        },
        {
          "name": "_description",
          "type": "string"
        },
        {
          "name": "_unit_price",
          "type": "uint256"
        },
        {
          "name": "_quantity",
          "type": "uint256"
        },
        {
          "name": "_image_link_ipfs",
          "type": "string"
        }
      ],
      "name": "InsertProduct",
      "outputs": [],
      "payable": false,
      "stateMutability": "nonpayable",
      "type": "function"
    },
    {
      "constant": false,
      "inputs": [
        {
          "name": "_front_id",
          "type": "uint256"
        },
        {
          "name": "_product_id",
          "type": "uint256"
        },
        {
          "name": "_front_name",
          "type": "string"
        },
        {
          "name": "_name",
          "type": "string"
        },
        {
          "name": "_description",
          "type": "string"
        },
        {
          "name": "_unit_price",
          "type": "uint256"
        },
        {
          "name": "_quantity",
          "type": "uint256"
        },
        {
          "name": "_image_link_ipfs",
          "type": "string"
        }
      ],
      "name": "UpdateProduct",
      "outputs": [],
      "payable": false,
      "stateMutability": "nonpayable",
      "type": "function"
    },
    {
      "constant": false,
      "inputs": [
        {
          "name": "_front_id",
          "type": "uint256"
        },
        {
          "name": "_product_id",
          "type": "uint256"
        }
      ],
      "name": "RemoveProduct",
      "outputs": [],
      "payable": false,
      "stateMutability": "nonpayable",
      "type": "function"
    },
    {
      "constant": true,
      "inputs": [
        {
          "name": "_front_id",
          "type": "uint256"
        }
      ],
      "name": "GetProductCountByFront",
      "outputs": [
        {
          "name": "",
          "type": "uint256"
        }
      ],
      "payable": false,
      "stateMutability": "view",
      "type": "function"
    },
    {
      "constant": true,
      "inputs": [
        {
          "name": "_front_id",
          "type": "uint256"
        },
        {
          "name": "_product_id",
          "type": "uint256"
        }
      ],
      "name": "GetProductByFront",
      "outputs": [
        {
          "name": "",
          "type": "string"
        },
        {
          "name": "",
          "type": "string"
        },
        {
          "name": "",
          "type": "string"
        },
        {
          "name": "",
          "type": "uint256"
        },
        {
          "name": "",
          "type": "uint256"
        },
        {
          "name": "",
          "type": "string"
        }
      ],
      "payable": false,
      "stateMutability": "view",
      "type": "function"
    },
    {
      "constant": true,
      "inputs": [
        {
          "name": "_storeOwnerAddress",
          "type": "address"
        },
        {
          "name": "_front_id",
          "type": "uint256"
        },
        {
          "name": "_product_id",
          "type": "uint256"
        }
      ],
      "name": "GetEachProductByOwner",
      "outputs": [
        {
          "name": "",
          "type": "string"
        },
        {
          "name": "",
          "type": "string"
        },
        {
          "name": "",
          "type": "string"
        },
        {
          "name": "",
          "type": "uint256"
        },
        {
          "name": "",
          "type": "uint256"
        },
        {
          "name": "",
          "type": "string"
        }
      ],
      "payable": false,
      "stateMutability": "view",
      "type": "function"
    }
  ],
  "bytecode": "0x608060405260008060146101000a81548160ff021916908315150217905550336000806101000a81548173ffffffffffffffffffffffffffffffffffffffff021916908373ffffffffffffffffffffffffffffffffffffffff160217905550614b678061006d6000396000f300608060405260043610610149576000357c0100000000000000000000000000000000000000000000000000000000900463ffffffff1680632782ad451461014e5780632e8b0193146101ba5780633bdd004e146102b45780633f4ba83a146102f557806341c0e1b51461030c578063429b62e5146103235780634be1956e1461037e5780634e580b8e1461044f57806352220990146104925780635c975abb146106b45780636f4123b3146106e35780638269c96d146107945780638456cb59146108015780638da5cb5b1461081857806393f0c8fe1461086f57806398ef4347146109c8578063a945803414610a31578063bb838d6314610a9a578063cc5d996f14610bfd578063e854529814610dff578063ed1a54db14610e5a578063f29221a914610edb578063f2fde38b14610f12578063fc5794b814610f55578063ffbf54d214610f98575b600080fd5b34801561015a57600080fd5b50610163610fc3565b6040518080602001828103825283818151815260200191508051906020019060200280838360005b838110156101a657808201518184015260208101905061018b565b505050509050019250505060405180910390f35b3480156101c657600080fd5b506101fb600480360381019080803573ffffffffffffffffffffffffffffffffffffffff169060200190929190505050611051565b6040518080602001841515151581526020018373ffffffffffffffffffffffffffffffffffffffff1673ffffffffffffffffffffffffffffffffffffffff168152602001828103825285818151815260200191508051906020019080838360005b8381101561027757808201518184015260208101905061025c565b50505050905090810190601f1680156102a45780820380516001836020036101000a031916815260200191505b5094505050505060405180910390f35b3480156102c057600080fd5b506102df600480360381019080803590602001909291905050506112a4565b6040518082815260200191505060405180910390f35b34801561030157600080fd5b5061030a611360565b005b34801561031857600080fd5b5061032161141e565b005b34801561032f57600080fd5b50610364600480360381019080803573ffffffffffffffffffffffffffffffffffffffff1690602001909291905050506114b3565b604051808215151515815260200191505060405180910390f35b34801561038a57600080fd5b506103c9600480360381019080803573ffffffffffffffffffffffffffffffffffffffff169060200190929190803590602001909291905050506114d3565b604051808060200183151515158152602001828103825284818151815260200191508051906020019080838360005b838110156104135780820151818401526020810190506103f8565b50505050905090810190601f1680156104405780820380516001836020036101000a031916815260200191505b50935050505060405180910390f35b34801561045b57600080fd5b50610490600480360381019080803573ffffffffffffffffffffffffffffffffffffffff1690602001909291905050506116c5565b005b34801561049e57600080fd5b506104e7600480360381019080803573ffffffffffffffffffffffffffffffffffffffff16906020019092919080359060200190929190803590602001909291905050506119eb565b604051808060200180602001806020018781526020018681526020018060200185810385528b818151815260200191508051906020019080838360005b8381101561053f578082015181840152602081019050610524565b50505050905090810190601f16801561056c5780820380516001836020036101000a031916815260200191505b5085810384528a818151815260200191508051906020019080838360005b838110156105a557808201518184015260208101905061058a565b50505050905090810190601f1680156105d25780820380516001836020036101000a031916815260200191505b50858103835289818151815260200191508051906020019080838360005b8381101561060b5780820151818401526020810190506105f0565b50505050905090810190601f1680156106385780820380516001836020036101000a031916815260200191505b50858103825286818151815260200191508051906020019080838360005b83811015610671578082015181840152602081019050610656565b50505050905090810190601f16801561069e5780820380516001836020036101000a031916815260200191505b509a505050505050505050505060405180910390f35b3480156106c057600080fd5b506106c961215b565b604051808215151515815260200191505060405180910390f35b3480156106ef57600080fd5b5061070e6004803603810190808035906020019092919050505061216e565b604051808060200183151515158152602001828103825284818151815260200191508051906020019080838360005b8381101561075857808201518184015260208101905061073d565b50505050905090810190601f1680156107855780820380516001836020036101000a031916815260200191505b50935050505060405180910390f35b3480156107a057600080fd5b506107bf6004803603810190808035906020019092919050505061232d565b604051808273ffffffffffffffffffffffffffffffffffffffff1673ffffffffffffffffffffffffffffffffffffffff16815260200191505060405180910390f35b34801561080d57600080fd5b5061081661236b565b005b34801561082457600080fd5b5061082d61242b565b604051808273ffffffffffffffffffffffffffffffffffffffff1673ffffffffffffffffffffffffffffffffffffffff16815260200191505060405180910390f35b34801561087b57600080fd5b506109c660048036038101908080359060200190929190803590602001908201803590602001908080601f0160208091040260200160405190810160405280939291908181526020018383808284378201915050505050509192919290803590602001908201803590602001908080601f0160208091040260200160405190810160405280939291908181526020018383808284378201915050505050509192919290803590602001908201803590602001908080601f01602080910402602001604051908101604052809392919081815260200183838082843782019150505050505091929192908035906020019092919080359060200190929190803590602001908201803590602001908080601f0160208091040260200160405190810160405280939291908181526020018383808284378201915050505050509192919290505050612450565b005b3480156109d457600080fd5b50610a2f600480360381019080803590602001908201803590602001908080601f0160208091040260200160405190810160405280939291908181526020018383808284378201915050505050509192919290505050612b30565b005b348015610a3d57600080fd5b50610a98600480360381019080803590602001908201803590602001908080601f0160208091040260200160405190810160405280939291908181526020018383808284378201915050505050509192919290505050612e33565b005b348015610aa657600080fd5b50610bfb6004803603810190808035906020019092919080359060200190929190803590602001908201803590602001908080601f0160208091040260200160405190810160405280939291908181526020018383808284378201915050505050509192919290803590602001908201803590602001908080601f0160208091040260200160405190810160405280939291908181526020018383808284378201915050505050509192919290803590602001908201803590602001908080601f01602080910402602001604051908101604052809392919081815260200183838082843782019150505050505091929192908035906020019092919080359060200190929190803590602001908201803590602001908080601f016020809104026020016040519081016040528093929190818152602001838380828437820191505050505050919291929050505061327e565b005b348015610c0957600080fd5b50610c326004803603810190808035906020019092919080359060200190929190505050613810565b604051808060200180602001806020018781526020018681526020018060200185810385528b818151815260200191508051906020019080838360005b83811015610c8a578082015181840152602081019050610c6f565b50505050905090810190601f168015610cb75780820380516001836020036101000a031916815260200191505b5085810384528a818151815260200191508051906020019080838360005b83811015610cf0578082015181840152602081019050610cd5565b50505050905090810190601f168015610d1d5780820380516001836020036101000a031916815260200191505b50858103835289818151815260200191508051906020019080838360005b83811015610d56578082015181840152602081019050610d3b565b50505050905090810190601f168015610d835780820380516001836020036101000a031916815260200191505b50858103825286818151815260200191508051906020019080838360005b83811015610dbc578082015181840152602081019050610da1565b50505050905090810190601f168015610de95780820380516001836020036101000a031916815260200191505b509a505050505050505050505060405180910390f35b348015610e0b57600080fd5b50610e40600480360381019080803573ffffffffffffffffffffffffffffffffffffffff169060200190929190505050613f4c565b604051808215151515815260200191505060405180910390f35b348015610e6657600080fd5b50610ec1600480360381019080803590602001908201803590602001908080601f01602080910402602001604051908101604052809392919081815260200183838082843782019150505050505091929192905050506141cb565b604051808215151515815260200191505060405180910390f35b348015610ee757600080fd5b50610f1060048036038101908080359060200190929190803590602001909291905050506141f0565b005b348015610f1e57600080fd5b50610f53600480360381019080803573ffffffffffffffffffffffffffffffffffffffff1690602001909291905050506145dd565b005b348015610f6157600080fd5b50610f96600480360381019080803573ffffffffffffffffffffffffffffffffffffffff169060200190929190505050614732565b005b348015610fa457600080fd5b50610fad6148e2565b6040518082815260200191505060405180910390f35b6060600480548060200260200160405190810160405280929190818152602001828054801561104757602002820191906000526020600020905b8160009054906101000a900473ffffffffffffffffffffffffffffffffffffffff1673ffffffffffffffffffffffffffffffffffffffff1681526020019060010190808311610ffd575b5050505050905090565b6060600080600060149054906101000a900460ff1615151561107257600080fd5b600073ffffffffffffffffffffffffffffffffffffffff168473ffffffffffffffffffffffffffffffffffffffff16141515156110ab57fe5b600260008573ffffffffffffffffffffffffffffffffffffffff1673ffffffffffffffffffffffffffffffffffffffff16815260200190815260200160002060010160159054906101000a900460ff16151561110657600080fd5b600260008573ffffffffffffffffffffffffffffffffffffffff1673ffffffffffffffffffffffffffffffffffffffff168152602001908152602001600020600001600260008673ffffffffffffffffffffffffffffffffffffffff1673ffffffffffffffffffffffffffffffffffffffff16815260200190815260200160002060010160009054906101000a900460ff16600260008773ffffffffffffffffffffffffffffffffffffffff1673ffffffffffffffffffffffffffffffffffffffff16815260200190815260200160002060010160019054906101000a900473ffffffffffffffffffffffffffffffffffffffff16828054600181600116156101000203166002900480601f0160208091040260200160405190810160405280929190818152602001828054600181600116156101000203166002900480156112905780601f1061126557610100808354040283529160200191611290565b820191906000526020600020905b81548152906001019060200180831161127357829003601f168201915b505050505092509250925092509193909250565b600060011515600260003373ffffffffffffffffffffffffffffffffffffffff1673ffffffffffffffffffffffffffffffffffffffff16815260200190815260200160002060010160159054906101000a900460ff16151514151561130857600080fd5b600860003373ffffffffffffffffffffffffffffffffffffffff1673ffffffffffffffffffffffffffffffffffffffff1681526020019081526020016000206000838152602001908152602001600020549050919050565b6000809054906101000a900473ffffffffffffffffffffffffffffffffffffffff1673ffffffffffffffffffffffffffffffffffffffff163373ffffffffffffffffffffffffffffffffffffffff161415156113bb57600080fd5b600060149054906101000a900460ff1615156113d657600080fd5b60008060146101000a81548160ff0219169083151502179055507f7805862f689e2f13df9f062ff482ad3ad112aca9e0847911ed832e158c525b3360405160405180910390a1565b6000809054906101000a900473ffffffffffffffffffffffffffffffffffffffff1673ffffffffffffffffffffffffffffffffffffffff163373ffffffffffffffffffffffffffffffffffffffff1614151561147957600080fd5b6000809054906101000a900473ffffffffffffffffffffffffffffffffffffffff1673ffffffffffffffffffffffffffffffffffffffff16ff5b60016020528060005260406000206000915054906101000a900460ff1681565b606060008073ffffffffffffffffffffffffffffffffffffffff168473ffffffffffffffffffffffffffffffffffffffff161415151561150f57fe5b600260008573ffffffffffffffffffffffffffffffffffffffff1673ffffffffffffffffffffffffffffffffffffffff16815260200190815260200160002060010160159054906101000a900460ff16151561156a57600080fd5b600560008573ffffffffffffffffffffffffffffffffffffffff1673ffffffffffffffffffffffffffffffffffffffff1681526020019081526020016000206000848152602001908152602001600020600001600560008673ffffffffffffffffffffffffffffffffffffffff1673ffffffffffffffffffffffffffffffffffffffff168152602001908152602001600020600085815260200190815260200160002060010160009054906101000a900460ff16818054600181600116156101000203166002900480601f0160208091040260200160405190810160405280929190818152602001828054600181600116156101000203166002900480156116b35780601f10611688576101008083540402835291602001916116b3565b820191906000526020600020905b81548152906001019060200180831161169657829003601f168201915b50505050509150915091509250929050565b60011515600160003373ffffffffffffffffffffffffffffffffffffffff1673ffffffffffffffffffffffffffffffffffffffff16815260200190815260200160002060009054906101000a900460ff16151514151561172457600080fd5b600060149054906101000a900460ff1615151561174057600080fd5b600073ffffffffffffffffffffffffffffffffffffffff168173ffffffffffffffffffffffffffffffffffffffff161415151561177957fe5b600160003373ffffffffffffffffffffffffffffffffffffffff1673ffffffffffffffffffffffffffffffffffffffff16815260200190815260200160002060009054906101000a900460ff1615156117d157600080fd5b6001600260008373ffffffffffffffffffffffffffffffffffffffff1673ffffffffffffffffffffffffffffffffffffffff16815260200190815260200160002060010160006101000a81548160ff02191690831515021790555033600260008373ffffffffffffffffffffffffffffffffffffffff1673ffffffffffffffffffffffffffffffffffffffff16815260200190815260200160002060010160016101000a81548173ffffffffffffffffffffffffffffffffffffffff021916908373ffffffffffffffffffffffffffffffffffffffff1602179055507f399af1a14b533cb7880e7ce5fffa7b9112216325aa9690cdd728055787e8fc3681600260008473ffffffffffffffffffffffffffffffffffffffff1673ffffffffffffffffffffffffffffffffffffffff1681526020019081526020016000206000016001604051808473ffffffffffffffffffffffffffffffffffffffff1673ffffffffffffffffffffffffffffffffffffffff16815260200180602001831515151581526020018281038252848181546001816001161561010002031660029004815260200191508054600181600116156101000203166002900480156119d85780601f106119ad576101008083540402835291602001916119d8565b820191906000526020600020905b8154815290600101906020018083116119bb57829003601f168201915b505094505050505060405180910390a150565b60608060606000806060600073ffffffffffffffffffffffffffffffffffffffff168973ffffffffffffffffffffffffffffffffffffffff1614151515611a2e57fe5b600260008a73ffffffffffffffffffffffffffffffffffffffff1673ffffffffffffffffffffffffffffffffffffffff16815260200190815260200160002060010160159054906101000a900460ff161515611a8957600080fd5b60001515611b92600760003373ffffffffffffffffffffffffffffffffffffffff1673ffffffffffffffffffffffffffffffffffffffff16815260200190815260200160002060008b815260200190815260200160002060008a81526020019081526020016000206000018054600181600116156101000203166002900480601f016020809104026020016040519081016040528092919081815260200182805460018160011615610100020316600290048015611b885780601f10611b5d57610100808354040283529160200191611b88565b820191906000526020600020905b815481529060010190602001808311611b6b57829003601f168201915b50505050506141cb565b1515141515611b9d57fe5b600760003373ffffffffffffffffffffffffffffffffffffffff1673ffffffffffffffffffffffffffffffffffffffff1681526020019081526020016000206000898152602001908152602001600020600088815260200190815260200160002060060160009054906101000a900460ff1615611c7857600080602060405190810160405280600081525091906020604051908101604052806000815250919060206040519081016040528060008152509190819150809050602060405190810160405280600081525095509550955095509550955061214f565b600760003373ffffffffffffffffffffffffffffffffffffffff1673ffffffffffffffffffffffffffffffffffffffff16815260200190815260200160002060008981526020019081526020016000206000888152602001908152602001600020600001600760003373ffffffffffffffffffffffffffffffffffffffff1673ffffffffffffffffffffffffffffffffffffffff16815260200190815260200160002060008a81526020019081526020016000206000898152602001908152602001600020600101600760003373ffffffffffffffffffffffffffffffffffffffff1673ffffffffffffffffffffffffffffffffffffffff16815260200190815260200160002060008b815260200190815260200160002060008a8152602001908152602001600020600201600760003373ffffffffffffffffffffffffffffffffffffffff1673ffffffffffffffffffffffffffffffffffffffff16815260200190815260200160002060008c815260200190815260200160002060008b815260200190815260200160002060030154600760003373ffffffffffffffffffffffffffffffffffffffff1673ffffffffffffffffffffffffffffffffffffffff16815260200190815260200160002060008d815260200190815260200160002060008c815260200190815260200160002060040154600760003373ffffffffffffffffffffffffffffffffffffffff1673ffffffffffffffffffffffffffffffffffffffff16815260200190815260200160002060008e815260200190815260200160002060008d8152602001908152602001600020600501858054600181600116156101000203166002900480601f016020809104026020016040519081016040528092919081815260200182805460018160011615610100020316600290048015611f675780601f10611f3c57610100808354040283529160200191611f67565b820191906000526020600020905b815481529060010190602001808311611f4a57829003601f168201915b50505050509550848054600181600116156101000203166002900480601f0160208091040260200160405190810160405280929190818152602001828054600181600116156101000203166002900480156120035780601f10611fd857610100808354040283529160200191612003565b820191906000526020600020905b815481529060010190602001808311611fe657829003601f168201915b50505050509450838054600181600116156101000203166002900480601f01602080910402602001604051908101604052809291908181526020018280546001816001161561010002031660029004801561209f5780601f106120745761010080835404028352916020019161209f565b820191906000526020600020905b81548152906001019060200180831161208257829003601f168201915b50505050509350808054600181600116156101000203166002900480601f01602080910402602001604051908101604052809291908181526020018280546001816001161561010002031660029004801561213b5780601f106121105761010080835404028352916020019161213b565b820191906000526020600020905b81548152906001019060200180831161211e57829003601f168201915b505050505090509550955095509550955095505b93975093979195509350565b600060149054906101000a900460ff1681565b6060600060011515600260003373ffffffffffffffffffffffffffffffffffffffff1673ffffffffffffffffffffffffffffffffffffffff16815260200190815260200160002060010160159054906101000a900460ff1615151415156121d457600080fd5b600560003373ffffffffffffffffffffffffffffffffffffffff1673ffffffffffffffffffffffffffffffffffffffff1681526020019081526020016000206000848152602001908152602001600020600001600560003373ffffffffffffffffffffffffffffffffffffffff1673ffffffffffffffffffffffffffffffffffffffff168152602001908152602001600020600085815260200190815260200160002060010160009054906101000a900460ff16818054600181600116156101000203166002900480601f01602080910402602001604051908101604052809291908181526020018280546001816001161561010002031660029004801561231d5780601f106122f25761010080835404028352916020019161231d565b820191906000526020600020905b81548152906001019060200180831161230057829003601f168201915b5050505050915091509150915091565b60048181548110151561233c57fe5b906000526020600020016000915054906101000a900473ffffffffffffffffffffffffffffffffffffffff1681565b6000809054906101000a900473ffffffffffffffffffffffffffffffffffffffff1673ffffffffffffffffffffffffffffffffffffffff163373ffffffffffffffffffffffffffffffffffffffff161415156123c657600080fd5b600060149054906101000a900460ff161515156123e257600080fd5b6001600060146101000a81548160ff0219169083151502179055507f6985a02210a168e66602d3235cb6db0e70f92b3ba4d376a33c0f3d9434bff62560405160405180910390a1565b6000809054906101000a900473ffffffffffffffffffffffffffffffffffffffff1681565b60011515600260003373ffffffffffffffffffffffffffffffffffffffff1673ffffffffffffffffffffffffffffffffffffffff16815260200190815260200160002060010160159054906101000a900460ff1615151415156124b257600080fd5b600060149054906101000a900460ff161515156124ce57600080fd5b60011515600260003373ffffffffffffffffffffffffffffffffffffffff1673ffffffffffffffffffffffffffffffffffffffff16815260200190815260200160002060010160009054906101000a900460ff16151514151561253057600080fd5b612539866141cb565b15612682577f9282b5f68946d6aa02bcdf8199a50a55640a21531212e4db45450431775a397533600560003373ffffffffffffffffffffffffffffffffffffffff1673ffffffffffffffffffffffffffffffffffffffff16815260200190815260200160002060008a8152602001908152602001600020600001604051808373ffffffffffffffffffffffffffffffffffffffff1673ffffffffffffffffffffffffffffffffffffffff1681526020018060200182810382528381815460018160011615610100020316600290048152602001915080546001816001161561010002031660029004801561266e5780601f106126435761010080835404028352916020019161266e565b820191906000526020600020905b81548152906001019060200180831161265157829003601f168201915b5050935050505060405180910390a1612b27565b60e06040519081016040528087815260200185815260200186815260200184815260200183815260200182815260200160001515815250600760003373ffffffffffffffffffffffffffffffffffffffff1673ffffffffffffffffffffffffffffffffffffffff16815260200190815260200160002060008981526020019081526020016000206000600860003373ffffffffffffffffffffffffffffffffffffffff1673ffffffffffffffffffffffffffffffffffffffff16815260200190815260200160002060008b81526020019081526020016000206000815480929190600101919050558152602001908152602001600020600082015181600001908051906020019061279492919061498b565b5060208201518160010190805190602001906127b192919061498b565b5060408201518160020190805190602001906127ce92919061498b565b50606082015181600301556080820151816004015560a08201518160050190805190602001906127ff92919061498b565b5060c08201518160060160006101000a81548160ff0219169083151502179055509050507fa088a43949650e6cefcf8bc63763b1919bc71059d02353704f3f8ae69df0d45f33600560003373ffffffffffffffffffffffffffffffffffffffff1673ffffffffffffffffffffffffffffffffffffffff16815260200190815260200160002060008a8152602001908152602001600020600001888888888888604051808973ffffffffffffffffffffffffffffffffffffffff1673ffffffffffffffffffffffffffffffffffffffff168152602001806020018060200180602001806020018881526020018781526020018060200186810386528d8181546001816001161561010002031660029004815260200191508054600181600116156101000203166002900480156129755780601f1061294a57610100808354040283529160200191612975565b820191906000526020600020905b81548152906001019060200180831161295857829003601f168201915b505086810385528c818151815260200191508051906020019080838360005b838110156129af578082015181840152602081019050612994565b50505050905090810190601f1680156129dc5780820380516001836020036101000a031916815260200191505b5086810384528b818151815260200191508051906020019080838360005b83811015612a155780820151818401526020810190506129fa565b50505050905090810190601f168015612a425780820380516001836020036101000a031916815260200191505b5086810383528a818151815260200191508051906020019080838360005b83811015612a7b578082015181840152602081019050612a60565b50505050905090810190601f168015612aa85780820380516001836020036101000a031916815260200191505b50868103825287818151815260200191508051906020019080838360005b83811015612ae1578082015181840152602081019050612ac6565b50505050905090810190601f168015612b0e5780820380516001836020036101000a031916815260200191505b509d505050505050505050505050505060405180910390a15b50505050505050565b60011515600260003373ffffffffffffffffffffffffffffffffffffffff1673ffffffffffffffffffffffffffffffffffffffff16815260200190815260200160002060010160159054906101000a900460ff161515141515612b9257600080fd5b60011515600260003373ffffffffffffffffffffffffffffffffffffffff1673ffffffffffffffffffffffffffffffffffffffff16815260200190815260200160002060010160009054906101000a900460ff161515141515612bf457600080fd5b612bfd816141cb565b15612c6a577fe74f5d02c3bb0186e8461bc0537013e2fca72ae8aeee5316fe13010e8ea95b3033604051808273ffffffffffffffffffffffffffffffffffffffff1673ffffffffffffffffffffffffffffffffffffffff16815260200191505060405180910390a1612e30565b604080519081016040528082815260200160001515815250600560003373ffffffffffffffffffffffffffffffffffffffff1673ffffffffffffffffffffffffffffffffffffffff1681526020019081526020016000206000600660003373ffffffffffffffffffffffffffffffffffffffff1673ffffffffffffffffffffffffffffffffffffffff16815260200190815260200160002060008154809291906001019190505581526020019081526020016000206000820151816000019080519060200190612d3b92919061498b565b5060208201518160010160006101000a81548160ff0219169083151502179055509050507f199194f39ce4f17c926fbbea1b882d3dbecf870898f376a5c35586e9d8b8dd9d3382604051808373ffffffffffffffffffffffffffffffffffffffff1673ffffffffffffffffffffffffffffffffffffffff16815260200180602001828103825283818151815260200191508051906020019080838360005b83811015612df4578082015181840152602081019050612dd9565b50505050905090810190601f168015612e215780820380516001836020036101000a031916815260200191505b50935050505060405180910390a15b50565b612e3b614a0b565b600060149054906101000a900460ff16151515612e5757600080fd5b600260003373ffffffffffffffffffffffffffffffffffffffff1673ffffffffffffffffffffffffffffffffffffffff16815260200190815260200160002060010160159054906101000a900460ff1615612f14577f3b623c417557e1e6f9f580a1292066dbb1da344985d606896c814093e82f067d33604051808273ffffffffffffffffffffffffffffffffffffffff1673ffffffffffffffffffffffffffffffffffffffff16815260200191505060405180910390a161327a565b60011515612f21836141cb565b1515141561300b577f37120d098d893b3a3952db7120c1e9bf934b121a2963ccfddaf1acec3ee9007733836000604051808473ffffffffffffffffffffffffffffffffffffffff1673ffffffffffffffffffffffffffffffffffffffff1681526020018060200183151515158152602001828103825284818151815260200191508051906020019080838360005b83811015612fca578082015181840152602081019050612faf565b50505050905090810190601f168015612ff75780820380516001836020036101000a031916815260200191505b5094505050505060405180910390a161327a565b608060405190810160405280838152602001600015158152602001600073ffffffffffffffffffffffffffffffffffffffff16815260200160011515815250905080600260003373ffffffffffffffffffffffffffffffffffffffff1673ffffffffffffffffffffffffffffffffffffffff16815260200190815260200160002060008201518160000190805190602001906130a892919061498b565b5060208201518160010160006101000a81548160ff02191690831515021790555060408201518160010160016101000a81548173ffffffffffffffffffffffffffffffffffffffff021916908373ffffffffffffffffffffffffffffffffffffffff16021790555060608201518160010160156101000a81548160ff021916908315150217905550905050600160043390806001815401808255809150509060018203906000526020600020016000909192909190916101000a81548173ffffffffffffffffffffffffffffffffffffffff021916908373ffffffffffffffffffffffffffffffffffffffff16021790555050507fea7f86a3dfcfef8dae065565ec719281f883f53abe69077f7561d9fbb29dc86233836000604051808473ffffffffffffffffffffffffffffffffffffffff1673ffffffffffffffffffffffffffffffffffffffff1681526020018060200183151515158152602001828103825284818151815260200191508051906020019080838360005b8381101561323d578082015181840152602081019050613222565b50505050905090810190601f16801561326a5780820380516001836020036101000a031916815260200191505b5094505050505060405180910390a15b5050565b60011515600260003373ffffffffffffffffffffffffffffffffffffffff1673ffffffffffffffffffffffffffffffffffffffff16815260200190815260200160002060010160159054906101000a900460ff1615151415156132e057600080fd5b60011515600260003373ffffffffffffffffffffffffffffffffffffffff1673ffffffffffffffffffffffffffffffffffffffff16815260200190815260200160002060010160009054906101000a900460ff16151514151561334257600080fd5b6000600860003373ffffffffffffffffffffffffffffffffffffffff1673ffffffffffffffffffffffffffffffffffffffff16815260200190815260200160002060008a815260200190815260200160002054141515156133a257600080fd5b84600760003373ffffffffffffffffffffffffffffffffffffffff1673ffffffffffffffffffffffffffffffffffffffff16815260200190815260200160002060008a81526020019081526020016000206000898152602001908152602001600020600001908051906020019061341a929190614a4e565b5083600760003373ffffffffffffffffffffffffffffffffffffffff1673ffffffffffffffffffffffffffffffffffffffff16815260200190815260200160002060008a815260200190815260200160002060008981526020019081526020016000206002019080519060200190613493929190614a4e565b5082600760003373ffffffffffffffffffffffffffffffffffffffff1673ffffffffffffffffffffffffffffffffffffffff16815260200190815260200160002060008a815260200190815260200160002060008981526020019081526020016000206003018190555081600760003373ffffffffffffffffffffffffffffffffffffffff1673ffffffffffffffffffffffffffffffffffffffff16815260200190815260200160002060008a815260200190815260200160002060008981526020019081526020016000206004018190555080600760003373ffffffffffffffffffffffffffffffffffffffff1673ffffffffffffffffffffffffffffffffffffffff16815260200190815260200160002060008a8152602001908152602001600020600089815260200190815260200160002060050190805190602001906135de929190614a4e565b507f322bceb1c1df9a515b4dea4750fd783974da22107ce93ca8ffce6d8ea963b6f133878787878787604051808873ffffffffffffffffffffffffffffffffffffffff1673ffffffffffffffffffffffffffffffffffffffff1681526020018060200180602001806020018781526020018681526020018060200185810385528b818151815260200191508051906020019080838360005b83811015613691578082015181840152602081019050613676565b50505050905090810190601f1680156136be5780820380516001836020036101000a031916815260200191505b5085810384528a818151815260200191508051906020019080838360005b838110156136f75780820151818401526020810190506136dc565b50505050905090810190601f1680156137245780820380516001836020036101000a031916815260200191505b50858103835289818151815260200191508051906020019080838360005b8381101561375d578082015181840152602081019050613742565b50505050905090810190601f16801561378a5780820380516001836020036101000a031916815260200191505b50858103825286818151815260200191508051906020019080838360005b838110156137c35780820151818401526020810190506137a8565b50505050905090810190601f1680156137f05780820380516001836020036101000a031916815260200191505b509b50505050505050505050505060405180910390a15050505050505050565b6060806060600080606060011515600260003373ffffffffffffffffffffffffffffffffffffffff1673ffffffffffffffffffffffffffffffffffffffff16815260200190815260200160002060010160159054906101000a900460ff16151514151561387c57600080fd5b60001515613985600760003373ffffffffffffffffffffffffffffffffffffffff1673ffffffffffffffffffffffffffffffffffffffff16815260200190815260200160002060008b815260200190815260200160002060008a81526020019081526020016000206000018054600181600116156101000203166002900480601f01602080910402602001604051908101604052809291908181526020018280546001816001161561010002031660029004801561397b5780601f106139505761010080835404028352916020019161397b565b820191906000526020600020905b81548152906001019060200180831161395e57829003601f168201915b50505050506141cb565b151514151561399057fe5b600760003373ffffffffffffffffffffffffffffffffffffffff1673ffffffffffffffffffffffffffffffffffffffff1681526020019081526020016000206000898152602001908152602001600020600088815260200190815260200160002060060160009054906101000a900460ff1615613a6b576000806020604051908101604052806000815250919060206040519081016040528060008152509190602060405190810160405280600081525091908191508090506020604051908101604052806000815250955095509550955095509550613f42565b600760003373ffffffffffffffffffffffffffffffffffffffff1673ffffffffffffffffffffffffffffffffffffffff16815260200190815260200160002060008981526020019081526020016000206000888152602001908152602001600020600001600760003373ffffffffffffffffffffffffffffffffffffffff1673ffffffffffffffffffffffffffffffffffffffff16815260200190815260200160002060008a81526020019081526020016000206000898152602001908152602001600020600101600760003373ffffffffffffffffffffffffffffffffffffffff1673ffffffffffffffffffffffffffffffffffffffff16815260200190815260200160002060008b815260200190815260200160002060008a8152602001908152602001600020600201600760003373ffffffffffffffffffffffffffffffffffffffff1673ffffffffffffffffffffffffffffffffffffffff16815260200190815260200160002060008c815260200190815260200160002060008b815260200190815260200160002060030154600760003373ffffffffffffffffffffffffffffffffffffffff1673ffffffffffffffffffffffffffffffffffffffff16815260200190815260200160002060008d815260200190815260200160002060008c815260200190815260200160002060040154600760003373ffffffffffffffffffffffffffffffffffffffff1673ffffffffffffffffffffffffffffffffffffffff16815260200190815260200160002060008e815260200190815260200160002060008d8152602001908152602001600020600501858054600181600116156101000203166002900480601f016020809104026020016040519081016040528092919081815260200182805460018160011615610100020316600290048015613d5a5780601f10613d2f57610100808354040283529160200191613d5a565b820191906000526020600020905b815481529060010190602001808311613d3d57829003601f168201915b50505050509550848054600181600116156101000203166002900480601f016020809104026020016040519081016040528092919081815260200182805460018160011615610100020316600290048015613df65780601f10613dcb57610100808354040283529160200191613df6565b820191906000526020600020905b815481529060010190602001808311613dd957829003601f168201915b50505050509450838054600181600116156101000203166002900480601f016020809104026020016040519081016040528092919081815260200182805460018160011615610100020316600290048015613e925780601f10613e6757610100808354040283529160200191613e92565b820191906000526020600020905b815481529060010190602001808311613e7557829003601f168201915b50505050509350808054600181600116156101000203166002900480601f016020809104026020016040519081016040528092919081815260200182805460018160011615610100020316600290048015613f2e5780601f10613f0357610100808354040283529160200191613f2e565b820191906000526020600020905b815481529060010190602001808311613f1157829003601f168201915b505050505090509550955095509550955095505b9295509295509295565b60008060009054906101000a900473ffffffffffffffffffffffffffffffffffffffff1673ffffffffffffffffffffffffffffffffffffffff163373ffffffffffffffffffffffffffffffffffffffff16141515613fa957600080fd5b600060149054906101000a900460ff16151515613fc557600080fd5b600073ffffffffffffffffffffffffffffffffffffffff168273ffffffffffffffffffffffffffffffffffffffff1614151515613ffe57fe5b600160008373ffffffffffffffffffffffffffffffffffffffff1673ffffffffffffffffffffffffffffffffffffffff16815260200190815260200160002060009054906101000a900460ff16156140bc577f05513b02e842f71805ca9a565a9bf073c4f876e643f1b5df8b57b5cffbf1adaa82604051808273ffffffffffffffffffffffffffffffffffffffff1673ffffffffffffffffffffffffffffffffffffffff16815260200191505060405180910390a1600090506141c6565b60018060008473ffffffffffffffffffffffffffffffffffffffff1673ffffffffffffffffffffffffffffffffffffffff16815260200190815260200160002060006101000a81548160ff0219169083151502179055507fb3996b7989b7e47e3e1e192d0e9759ec33d8c254636cc458b1b4551ecb9fc44f82604051808273ffffffffffffffffffffffffffffffffffffffff1673ffffffffffffffffffffffffffffffffffffffff16815260200191505060405180910390a1600160008373ffffffffffffffffffffffffffffffffffffffff1673ffffffffffffffffffffffffffffffffffffffff16815260200190815260200160002060009054906101000a900460ff1690505b919050565b600060608290506000815114156141e557600191506141ea565b600091505b50919050565b60011515600260003373ffffffffffffffffffffffffffffffffffffffff1673ffffffffffffffffffffffffffffffffffffffff16815260200190815260200160002060010160159054906101000a900460ff16151514151561425257600080fd5b600060149054906101000a900460ff1615151561426e57600080fd5b60011515600260003373ffffffffffffffffffffffffffffffffffffffff1673ffffffffffffffffffffffffffffffffffffffff16815260200190815260200160002060010160009054906101000a900460ff1615151415156142d057600080fd5b6000600860003373ffffffffffffffffffffffffffffffffffffffff1673ffffffffffffffffffffffffffffffffffffffff1681526020019081526020016000206000848152602001908152602001600020541415151561433057600080fd5b6001600760003373ffffffffffffffffffffffffffffffffffffffff1673ffffffffffffffffffffffffffffffffffffffff1681526020019081526020016000206000848152602001908152602001600020600083815260200190815260200160002060060160006101000a81548160ff0219169083151502179055507f97d31f7f2cb8921be10e95d29efb12224c92786dbcc0c5f7e226747513fd9f9e33600560003373ffffffffffffffffffffffffffffffffffffffff1673ffffffffffffffffffffffffffffffffffffffff1681526020019081526020016000206000858152602001908152602001600020600001600760003373ffffffffffffffffffffffffffffffffffffffff1673ffffffffffffffffffffffffffffffffffffffff16815260200190815260200160002060008681526020019081526020016000206000858152602001908152602001600020600001604051808473ffffffffffffffffffffffffffffffffffffffff1673ffffffffffffffffffffffffffffffffffffffff16815260200180602001806020018381038352858181546001816001161561010002031660029004815260200191508054600181600116156101000203166002900480156145455780601f1061451a57610100808354040283529160200191614545565b820191906000526020600020905b81548152906001019060200180831161452857829003601f168201915b50508381038252848181546001816001161561010002031660029004815260200191508054600181600116156101000203166002900480156145c85780601f1061459d576101008083540402835291602001916145c8565b820191906000526020600020905b8154815290600101906020018083116145ab57829003601f168201915b50509550505050505060405180910390a15050565b6000809054906101000a900473ffffffffffffffffffffffffffffffffffffffff1673ffffffffffffffffffffffffffffffffffffffff163373ffffffffffffffffffffffffffffffffffffffff1614151561463857600080fd5b600073ffffffffffffffffffffffffffffffffffffffff168173ffffffffffffffffffffffffffffffffffffffff161415151561467457600080fd5b8073ffffffffffffffffffffffffffffffffffffffff166000809054906101000a900473ffffffffffffffffffffffffffffffffffffffff1673ffffffffffffffffffffffffffffffffffffffff167f8be0079c531659141344cd1fd0a4f28419497f9722a3daafe3b4186f6b6457e060405160405180910390a3806000806101000a81548173ffffffffffffffffffffffffffffffffffffffff021916908373ffffffffffffffffffffffffffffffffffffffff16021790555050565b60011515600160003373ffffffffffffffffffffffffffffffffffffffff1673ffffffffffffffffffffffffffffffffffffffff16815260200190815260200160002060009054906101000a900460ff16151514151561479157600080fd5b600060149054906101000a900460ff161515156147ad57600080fd5b600073ffffffffffffffffffffffffffffffffffffffff168173ffffffffffffffffffffffffffffffffffffffff16141515156147e657fe5b600160003373ffffffffffffffffffffffffffffffffffffffff1673ffffffffffffffffffffffffffffffffffffffff16815260200190815260200160002060009054906101000a900460ff16151561483e57600080fd5b600260008273ffffffffffffffffffffffffffffffffffffffff1673ffffffffffffffffffffffffffffffffffffffff1681526020019081526020016000206000808201600061488e9190614ace565b6001820160006101000a81549060ff02191690556001820160016101000a81549073ffffffffffffffffffffffffffffffffffffffff02191690556001820160156101000a81549060ff0219169055505050565b600060011515600260003373ffffffffffffffffffffffffffffffffffffffff1673ffffffffffffffffffffffffffffffffffffffff16815260200190815260200160002060010160159054906101000a900460ff16151514151561494657600080fd5b600660003373ffffffffffffffffffffffffffffffffffffffff1673ffffffffffffffffffffffffffffffffffffffff16815260200190815260200160002054905090565b828054600181600116156101000203166002900490600052602060002090601f016020900481019282601f106149cc57805160ff19168380011785556149fa565b828001600101855582156149fa579182015b828111156149f95782518255916020019190600101906149de565b5b509050614a079190614b16565b5090565b60806040519081016040528060608152602001600015158152602001600073ffffffffffffffffffffffffffffffffffffffff1681526020016000151581525090565b828054600181600116156101000203166002900490600052602060002090601f016020900481019282601f10614a8f57805160ff1916838001178555614abd565b82800160010185558215614abd579182015b82811115614abc578251825591602001919060010190614aa1565b5b509050614aca9190614b16565b5090565b50805460018160011615610100020316600290046000825580601f10614af45750614b13565b601f016020900490600052602060002090810190614b129190614b16565b5b50565b614b3891905b80821115614b34576000816000905550600101614b1c565b5090565b905600a165627a7a723058205e5be136397392357a3fadb4211a36597a4dc6bcb6f50cb4e39bd903b8b779a40029",
  "source": "pragma solidity ^0.4.24;\r\n\r\nimport \"./fronts_mp.sol\";\r\n\r\ncontract products_mp is fronts_mp {\r\n////////////////////////////////// Products ////////////////////////////////////\r\n    struct Product {\r\n        //uint front_id;\r\n        string name;\r\n        string category;\r\n        string description;\r\n        uint unit_price;\r\n        uint quantity;\r\n        string image_link_ipfs;      //IPFS Image link\r\n        bool isDeleted;\r\n    }\r\n    //mapping from store_owner => Storefront => Product\r\n    mapping (address => mapping(uint => mapping(uint => Product))) products;\r\n    mapping (address => mapping(uint => uint)) productCount;\r\n    \r\n    //Event when inserted new product\r\n    event NewProductInserted(address store_owner, string storefront_name, string product_name, string category,\r\n        string description, uint unit_price, uint quantity, string image_link_ipfs);\r\n    //Event for empty product name\r\n    event EmptyProductName(address store_owner, string storefront_name);\r\n    //event for UpdateProduct\r\n    event ProductUpdate(address store_owner, string storefront_name, string product_name,\r\n        string description, uint unit_price, uint quantity, string image_link_ipfs);\r\n    //Log product doesn't exist\r\n    event LogProductNotExist(address store_owner, string storefront_name, string product_name);        \r\n    //Log Delete product\r\n    event LogDeleteProduct(address store_owner, string storefront_name, string product_name);\r\n    \r\n    //Thinking that fronts count and products count will be loop in front-end to Get Call Smart Contract\r\n    function InsertProduct(uint _front_id, string _name, string _category, string _description, \r\n        uint _unit_price, uint _quantity, string _image_link_ipfs) public onlyStoreOwner whenNotPaused\r\n    {\r\n        //Make sure store owner is valid and approved\r\n        require(store_owners[msg.sender].isApproved == true);\r\n        //Check for empty product name\r\n        //if(library_mp.IsEmptyString(_name))\r\n        if(IsEmptyString(_name))\r\n        {\r\n            emit EmptyProductName(msg.sender, fronts[msg.sender][_front_id].front_name);\r\n            return;\r\n        }\r\n\r\n        products[msg.sender][_front_id][productCount[msg.sender][_front_id]++] =\r\n        Product(_name, _description, _category, _unit_price, _quantity, _image_link_ipfs, false);\r\n        \r\n        emit NewProductInserted(msg.sender, fronts[msg.sender][_front_id].front_name, _name, _category,\r\n            _description, _unit_price, _quantity, _image_link_ipfs);\r\n    }\r\n\r\n    function UpdateProduct(uint _front_id, uint _product_id, string _front_name, string _name, \r\n        string _description, uint _unit_price, uint _quantity, string _image_link_ipfs) public onlyStoreOwner {\r\n            //Make sure store owner is valid and approved\r\n            require(store_owners[msg.sender].isApproved == true);\r\n            //Count Product count should not be 0\r\n            require(productCount[msg.sender][_front_id] != 0);\r\n            //Check if the record exist. Empty Name string means doesn't exist\r\n            /*\r\n            if(IsEmptyString(store_front_products[msg.sender][_front_id][_product_id].name))\r\n            {\r\n                emit LogProductNotExist(msg.sender, _front_name, _name);\r\n                return;\r\n            }\r\n            */\r\n            products[msg.sender][_front_id][_product_id].name = _name;\r\n            products[msg.sender][_front_id][_product_id].description = _description;\r\n            products[msg.sender][_front_id][_product_id].unit_price = _unit_price;\r\n            products[msg.sender][_front_id][_product_id].quantity = _quantity;\r\n            products[msg.sender][_front_id][_product_id].image_link_ipfs = _image_link_ipfs;\r\n            \r\n            emit ProductUpdate(msg.sender, _front_name, _name,\r\n                _description, _unit_price, _quantity, _image_link_ipfs);\r\n    }\r\n    function RemoveProduct(uint _front_id, uint _product_id) public onlyStoreOwner whenNotPaused  {\r\n        //Make sure store owner is valid and approved\r\n        require(store_owners[msg.sender].isApproved == true);\r\n        require(productCount[msg.sender][_front_id] != 0);\r\n        products[msg.sender][_front_id][_product_id].isDeleted = true;\r\n        \r\n        emit LogDeleteProduct(msg.sender, fronts[msg.sender][_front_id].front_name, \r\n            products[msg.sender][_front_id][_product_id].name);\r\n        //read the site https://medium.com/@robhitchens/solidity-crud-part-2-ed8d8b4f74ec\r\n    }\r\n    function GetProductCountByFront(uint _front_id) public constant onlyStoreOwner returns(uint) {\r\n        return productCount[msg.sender][_front_id];\r\n    }\r\n    //Get Storefront by address and array index\r\n    function GetProductByFront(uint _front_id, uint _product_id) public \r\n        view onlyStoreOwner returns(string, string, string, uint, uint, string)\r\n    {\r\n        //if products exist\r\n        //assert(library_mp.IsEmptyString(products[msg.sender][_front_id][_product_id].name)==false);\r\n        assert(IsEmptyString(products[msg.sender][_front_id][_product_id].name)==false);\r\n        if(products[msg.sender][_front_id][_product_id].isDeleted) {\r\n            //Due to stack too deep error and eth limiation, \r\n            //I had not to return one bool variable and instead use if else condition\r\n            return(\"\",\"\",\"\",0,0,\"\");\r\n        }\r\n        else    {\r\n            return(products[msg.sender][_front_id][_product_id].name,\r\n                    products[msg.sender][_front_id][_product_id].category,\r\n                    products[msg.sender][_front_id][_product_id].description,\r\n                    products[msg.sender][_front_id][_product_id].unit_price,\r\n                    products[msg.sender][_front_id][_product_id].quantity,\r\n                    products[msg.sender][_front_id][_product_id].image_link_ipfs);\r\n        }\r\n    }\r\n    function GetEachProductByOwner(address _storeOwnerAddress, uint _front_id, uint _product_id) public view\r\n        returns(string, string, string, uint, uint, string)\r\n    {\r\n        assert(_storeOwnerAddress!=address(0));\r\n        require(store_owners[_storeOwnerAddress].flag);\r\n        assert(IsEmptyString(products[msg.sender][_front_id][_product_id].name)==false);\r\n        if(products[msg.sender][_front_id][_product_id].isDeleted)    \r\n            return(\"\",\"\",\"\",0,0,\"\");\r\n        else\r\n            return(products[msg.sender][_front_id][_product_id].name,\r\n                    products[msg.sender][_front_id][_product_id].category,\r\n                    products[msg.sender][_front_id][_product_id].description,\r\n                    products[msg.sender][_front_id][_product_id].unit_price,\r\n                    products[msg.sender][_front_id][_product_id].quantity,\r\n                    products[msg.sender][_front_id][_product_id].image_link_ipfs);\r\n    }\r\n////////////////////////////////////////////////////////////////////////////////\r\n}",
  "sourcePath": "/home/nira/marketplace/contracts/products_mp.sol",
  "compiler": {
    "name": "solc",
    "version": "0.4.24+commit.e67f0147.Emscripten.clang"
  },
  "schemaVersion": "2.0.1",
  "updatedAt": "2018-08-11T02:11:47.632Z"
}