{
  "contractName": "stores_mp",
  "abi": [
    {
      "constant": false,
      "inputs": [
        {
          "name": "_adminAddress",
          "type": "address"
        }
      ],
      "name": "addNewAdmin",
      "outputs": [],
      "payable": false,
      "stateMutability": "nonpayable",
      "type": "function"
    },
    {
      "constant": true,
      "inputs": [],
      "name": "getAdmins",
      "outputs": [
        {
          "name": "",
          "type": "address[]"
        }
      ],
      "payable": false,
      "stateMutability": "view",
      "type": "function"
    },
    {
      "constant": false,
      "inputs": [
        {
          "name": "newAddress",
          "type": "address"
        }
      ],
      "name": "transferAllFunds",
      "outputs": [
        {
          "name": "",
          "type": "uint256"
        }
      ],
      "payable": false,
      "stateMutability": "nonpayable",
      "type": "function"
    },
    {
      "constant": false,
      "inputs": [],
      "name": "unpause",
      "outputs": [],
      "payable": false,
      "stateMutability": "nonpayable",
      "type": "function"
    },
    {
      "constant": false,
      "inputs": [],
      "name": "kill",
      "outputs": [],
      "payable": false,
      "stateMutability": "nonpayable",
      "type": "function"
    },
    {
      "constant": true,
      "inputs": [
        {
          "name": "",
          "type": "address"
        }
      ],
      "name": "admins",
      "outputs": [
        {
          "name": "",
          "type": "bool"
        }
      ],
      "payable": false,
      "stateMutability": "view",
      "type": "function"
    },
    {
      "constant": true,
      "inputs": [],
      "name": "paused",
      "outputs": [
        {
          "name": "",
          "type": "bool"
        }
      ],
      "payable": false,
      "stateMutability": "view",
      "type": "function"
    },
    {
      "constant": true,
      "inputs": [],
      "name": "getContractBalance",
      "outputs": [
        {
          "name": "",
          "type": "uint256"
        }
      ],
      "payable": false,
      "stateMutability": "view",
      "type": "function"
    },
    {
      "constant": true,
      "inputs": [
        {
          "name": "",
          "type": "uint256"
        }
      ],
      "name": "storeOwnerAddresses",
      "outputs": [
        {
          "name": "",
          "type": "address"
        }
      ],
      "payable": false,
      "stateMutability": "view",
      "type": "function"
    },
    {
      "constant": true,
      "inputs": [
        {
          "name": "",
          "type": "address"
        }
      ],
      "name": "store_owner_balances",
      "outputs": [
        {
          "name": "",
          "type": "uint256"
        }
      ],
      "payable": false,
      "stateMutability": "view",
      "type": "function"
    },
    {
      "constant": false,
      "inputs": [],
      "name": "pause",
      "outputs": [],
      "payable": false,
      "stateMutability": "nonpayable",
      "type": "function"
    },
    {
      "constant": true,
      "inputs": [],
      "name": "owner",
      "outputs": [
        {
          "name": "",
          "type": "address"
        }
      ],
      "payable": false,
      "stateMutability": "view",
      "type": "function"
    },
    {
      "constant": true,
      "inputs": [
        {
          "name": "",
          "type": "address"
        }
      ],
      "name": "store_owners",
      "outputs": [
        {
          "name": "store_name",
          "type": "string"
        },
        {
          "name": "isApproved",
          "type": "bool"
        },
        {
          "name": "approvedBy",
          "type": "address"
        },
        {
          "name": "flag",
          "type": "bool"
        }
      ],
      "payable": false,
      "stateMutability": "view",
      "type": "function"
    },
    {
      "constant": false,
      "inputs": [
        {
          "name": "newOwner",
          "type": "address"
        }
      ],
      "name": "transferOwnership",
      "outputs": [],
      "payable": false,
      "stateMutability": "nonpayable",
      "type": "function"
    },
    {
      "anonymous": false,
      "inputs": [
        {
          "indexed": false,
          "name": "store_owner",
          "type": "address"
        },
        {
          "indexed": false,
          "name": "store_name",
          "type": "string"
        },
        {
          "indexed": false,
          "name": "isApproved",
          "type": "bool"
        }
      ],
      "name": "emptyStoreNameEvent",
      "type": "event"
    },
    {
      "anonymous": false,
      "inputs": [
        {
          "indexed": false,
          "name": "store_owner",
          "type": "address"
        }
      ],
      "name": "storeAlreadyExistEvent",
      "type": "event"
    },
    {
      "anonymous": false,
      "inputs": [
        {
          "indexed": false,
          "name": "store_owner",
          "type": "address"
        },
        {
          "indexed": false,
          "name": "store_name",
          "type": "string"
        },
        {
          "indexed": false,
          "name": "isApproved",
          "type": "bool"
        }
      ],
      "name": "newStoreApplicationEvent",
      "type": "event"
    },
    {
      "anonymous": false,
      "inputs": [
        {
          "indexed": false,
          "name": "store_owner",
          "type": "address"
        },
        {
          "indexed": false,
          "name": "store_name",
          "type": "string"
        },
        {
          "indexed": false,
          "name": "isApproved",
          "type": "bool"
        }
      ],
      "name": "approveStoreApplicationEvent",
      "type": "event"
    },
    {
      "anonymous": false,
      "inputs": [
        {
          "indexed": false,
          "name": "storeAddress",
          "type": "address"
        },
        {
          "indexed": false,
          "name": "amountWithdrawn",
          "type": "uint256"
        }
      ],
      "name": "amountWithdrawn",
      "type": "event"
    },
    {
      "anonymous": false,
      "inputs": [
        {
          "indexed": false,
          "name": "addAdmin",
          "type": "address"
        }
      ],
      "name": "newAdminEvent",
      "type": "event"
    },
    {
      "anonymous": false,
      "inputs": [
        {
          "indexed": false,
          "name": "addAdmin",
          "type": "address"
        }
      ],
      "name": "adminAlreadyExistEvent",
      "type": "event"
    },
    {
      "anonymous": false,
      "inputs": [],
      "name": "Pause",
      "type": "event"
    },
    {
      "anonymous": false,
      "inputs": [],
      "name": "Unpause",
      "type": "event"
    },
    {
      "anonymous": false,
      "inputs": [
        {
          "indexed": true,
          "name": "previousOwner",
          "type": "address"
        },
        {
          "indexed": true,
          "name": "newOwner",
          "type": "address"
        }
      ],
      "name": "OwnershipTransferred",
      "type": "event"
    },
    {
      "constant": false,
      "inputs": [
        {
          "name": "_store_name",
          "type": "string"
        }
      ],
      "name": "addNewStore",
      "outputs": [],
      "payable": false,
      "stateMutability": "nonpayable",
      "type": "function"
    },
    {
      "constant": true,
      "inputs": [],
      "name": "getAllStoreAddresses",
      "outputs": [
        {
          "name": "",
          "type": "address[]"
        }
      ],
      "payable": false,
      "stateMutability": "view",
      "type": "function"
    },
    {
      "constant": true,
      "inputs": [
        {
          "name": "_storeOwnerAddress",
          "type": "address"
        }
      ],
      "name": "getStoreByAddress",
      "outputs": [
        {
          "name": "",
          "type": "string"
        },
        {
          "name": "",
          "type": "bool"
        },
        {
          "name": "",
          "type": "address"
        }
      ],
      "payable": false,
      "stateMutability": "view",
      "type": "function"
    },
    {
      "constant": false,
      "inputs": [
        {
          "name": "_storeOwnerAddress",
          "type": "address"
        }
      ],
      "name": "approveStoreByAdmin",
      "outputs": [],
      "payable": false,
      "stateMutability": "nonpayable",
      "type": "function"
    },
    {
      "constant": false,
      "inputs": [
        {
          "name": "_amountToWithdraw",
          "type": "uint256"
        }
      ],
      "name": "withdrawAmount",
      "outputs": [],
      "payable": false,
      "stateMutability": "nonpayable",
      "type": "function"
    },
    {
      "constant": true,
      "inputs": [],
      "name": "getStoreOwnerBalance",
      "outputs": [
        {
          "name": "",
          "type": "uint256"
        }
      ],
      "payable": false,
      "stateMutability": "view",
      "type": "function"
    },
    {
      "constant": true,
      "inputs": [],
      "name": "getMaxAmountCanWithdraw",
      "outputs": [
        {
          "name": "",
          "type": "uint256"
        }
      ],
      "payable": false,
      "stateMutability": "view",
      "type": "function"
    },
    {
      "constant": true,
      "inputs": [],
      "name": "getUserType",
      "outputs": [
        {
          "name": "",
          "type": "uint8"
        }
      ],
      "payable": false,
      "stateMutability": "view",
      "type": "function"
    }
  ],
  "bytecode": "0x608060405260008060146101000a81548160ff021916908315150217905550336000806101000a81548173ffffffffffffffffffffffffffffffffffffffff021916908373ffffffffffffffffffffffffffffffffffffffff1602179055506122f78061006d6000396000f300608060405260043610610128576000357c0100000000000000000000000000000000000000000000000000000000900463ffffffff1680630562b9f71461012d57806306a66a0f1461015a5780630a1b10e11461019d5780631f076922146101e057806331ae450b1461020b5780633b789750146102775780633f4ba83a146102ce57806341990077146102e557806341c0e1b51461031e578063429b62e5146103355780635a5dae41146103905780635c975abb146103f957806366ee5791146104285780636f9fb98a146105225780638269c96d1461054d57806383c40450146105ba5780638456cb59146106115780638da5cb5b1461062857806398330f971461067f578063a6b36163146106eb578063c03a3a2b146107f0578063f2fde38b1461081b575b600080fd5b34801561013957600080fd5b506101586004803603810190808035906020019092919050505061085e565b005b34801561016657600080fd5b5061019b600480360381019080803573ffffffffffffffffffffffffffffffffffffffff169060200190929190505050610ac8565b005b3480156101a957600080fd5b506101de600480360381019080803573ffffffffffffffffffffffffffffffffffffffff169060200190929190505050610df1565b005b3480156101ec57600080fd5b506101f5611082565b6040518082815260200191505060405180910390f35b34801561021757600080fd5b50610220611103565b6040518080602001828103825283818151815260200191508051906020019060200280838360005b83811015610263578082015181840152602081019050610248565b505050509050019250505060405180910390f35b34801561028357600080fd5b506102b8600480360381019080803573ffffffffffffffffffffffffffffffffffffffff169060200190929190505050611191565b6040518082815260200191505060405180910390f35b3480156102da57600080fd5b506102e3611241565b005b3480156102f157600080fd5b506102fa6112ff565b6040518082600381111561030a57fe5b60ff16815260200191505060405180910390f35b34801561032a57600080fd5b50610333611420565b005b34801561034157600080fd5b50610376600480360381019080803573ffffffffffffffffffffffffffffffffffffffff1690602001909291905050506114b5565b604051808215151515815260200191505060405180910390f35b34801561039c57600080fd5b506103f7600480360381019080803590602001908201803590602001908080601f01602080910402602001604051908101604052809392919081815260200183838082843782019150505050505091929192905050506114d5565b005b34801561040557600080fd5b5061040e611a1b565b604051808215151515815260200191505060405180910390f35b34801561043457600080fd5b50610469600480360381019080803573ffffffffffffffffffffffffffffffffffffffff169060200190929190505050611a2e565b6040518080602001841515151581526020018373ffffffffffffffffffffffffffffffffffffffff1673ffffffffffffffffffffffffffffffffffffffff168152602001828103825285818151815260200191508051906020019080838360005b838110156104e55780820151818401526020810190506104ca565b50505050905090810190601f1680156105125780820380516001836020036101000a031916815260200191505b5094505050505060405180910390f35b34801561052e57600080fd5b50610537611c84565b6040518082815260200191505060405180910390f35b34801561055957600080fd5b5061057860048036038101908080359060200190929190505050611cfe565b604051808273ffffffffffffffffffffffffffffffffffffffff1673ffffffffffffffffffffffffffffffffffffffff16815260200191505060405180910390f35b3480156105c657600080fd5b506105fb600480360381019080803573ffffffffffffffffffffffffffffffffffffffff169060200190929190505050611d3c565b6040518082815260200191505060405180910390f35b34801561061d57600080fd5b50610626611d54565b005b34801561063457600080fd5b5061063d611e14565b604051808273ffffffffffffffffffffffffffffffffffffffff1673ffffffffffffffffffffffffffffffffffffffff16815260200191505060405180910390f35b34801561068b57600080fd5b50610694611e39565b6040518080602001828103825283818151815260200191508051906020019060200280838360005b838110156106d75780820151818401526020810190506106bc565b505050509050019250505060405180910390f35b3480156106f757600080fd5b5061072c600480360381019080803573ffffffffffffffffffffffffffffffffffffffff169060200190929190505050611ec7565b6040518080602001851515151581526020018473ffffffffffffffffffffffffffffffffffffffff1673ffffffffffffffffffffffffffffffffffffffff16815260200183151515158152602001828103825286818151815260200191508051906020019080838360005b838110156107b2578082015181840152602081019050610797565b50505050905090810190601f1680156107df5780820380516001836020036101000a031916815260200191505b509550505050505060405180910390f35b3480156107fc57600080fd5b50610805611fc9565b6040518082815260200191505060405180910390f35b34801561082757600080fd5b5061085c600480360381019080803573ffffffffffffffffffffffffffffffffffffffff16906020019092919050505061208e565b005b60011515600360003373ffffffffffffffffffffffffffffffffffffffff1673ffffffffffffffffffffffffffffffffffffffff16815260200190815260200160002060010160159054906101000a900460ff1615151415156108c057600080fd5b600060149054906101000a900460ff161515156108dc57600080fd5b803073ffffffffffffffffffffffffffffffffffffffff16311015151561090257600080fd5b80600460003373ffffffffffffffffffffffffffffffffffffffff1673ffffffffffffffffffffffffffffffffffffffff168152602001908152602001600020541015151561095057600080fd5b3373ffffffffffffffffffffffffffffffffffffffff1631813373ffffffffffffffffffffffffffffffffffffffff163101101580156109c057503373ffffffffffffffffffffffffffffffffffffffff1631813373ffffffffffffffffffffffffffffffffffffffff16310311155b15610ac55780600460003373ffffffffffffffffffffffffffffffffffffffff1673ffffffffffffffffffffffffffffffffffffffff168152602001908152602001600020600082825403925050819055503373ffffffffffffffffffffffffffffffffffffffff166108fc829081150290604051600060405180830381858888f19350505050158015610a58573d6000803e3d6000fd5b507fb2f5d4c0f2ba5229a12fd1382c4e4a7de3abb1a36c6e9f17e123d90a555b61b33382604051808373ffffffffffffffffffffffffffffffffffffffff1673ffffffffffffffffffffffffffffffffffffffff1681526020018281526020019250505060405180910390a15b50565b60011515600160003373ffffffffffffffffffffffffffffffffffffffff1673ffffffffffffffffffffffffffffffffffffffff16815260200190815260200160002060009054906101000a900460ff161515141515610b2757600080fd5b600060149054906101000a900460ff16151515610b4357600080fd5b600073ffffffffffffffffffffffffffffffffffffffff168173ffffffffffffffffffffffffffffffffffffffff1614151515610b7f57600080fd5b600160003373ffffffffffffffffffffffffffffffffffffffff1673ffffffffffffffffffffffffffffffffffffffff16815260200190815260200160002060009054906101000a900460ff161515610bd757600080fd5b6001600360008373ffffffffffffffffffffffffffffffffffffffff1673ffffffffffffffffffffffffffffffffffffffff16815260200190815260200160002060010160006101000a81548160ff02191690831515021790555033600360008373ffffffffffffffffffffffffffffffffffffffff1673ffffffffffffffffffffffffffffffffffffffff16815260200190815260200160002060010160016101000a81548173ffffffffffffffffffffffffffffffffffffffff021916908373ffffffffffffffffffffffffffffffffffffffff1602179055507f2d3b3f8ade3bae1b99cd0098d3cac1b37137c4e77f3d7e94cbb043b76c3dac1481600360008473ffffffffffffffffffffffffffffffffffffffff1673ffffffffffffffffffffffffffffffffffffffff1681526020019081526020016000206000016001604051808473ffffffffffffffffffffffffffffffffffffffff1673ffffffffffffffffffffffffffffffffffffffff1681526020018060200183151515158152602001828103825284818154600181600116156101000203166002900481526020019150805460018160011615610100020316600290048015610dde5780601f10610db357610100808354040283529160200191610dde565b820191906000526020600020905b815481529060010190602001808311610dc157829003601f168201915b505094505050505060405180910390a150565b6000809054906101000a900473ffffffffffffffffffffffffffffffffffffffff1673ffffffffffffffffffffffffffffffffffffffff163373ffffffffffffffffffffffffffffffffffffffff16141515610e4c57600080fd5b600060149054906101000a900460ff16151515610e6857600080fd5b600073ffffffffffffffffffffffffffffffffffffffff168173ffffffffffffffffffffffffffffffffffffffff1614151515610ea457600080fd5b600160008273ffffffffffffffffffffffffffffffffffffffff1673ffffffffffffffffffffffffffffffffffffffff16815260200190815260200160002060009054906101000a900460ff1615610f5e577f53d0035f6b28e97e97a51153d8a10195bb11195c78d4f1f54b90257dd4b5f24c81604051808273ffffffffffffffffffffffffffffffffffffffff1673ffffffffffffffffffffffffffffffffffffffff16815260200191505060405180910390a161107f565b60018060008373ffffffffffffffffffffffffffffffffffffffff1673ffffffffffffffffffffffffffffffffffffffff16815260200190815260200160002060006101000a81548160ff02191690831515021790555060028190806001815401808255809150509060018203906000526020600020016000909192909190916101000a81548173ffffffffffffffffffffffffffffffffffffffff021916908373ffffffffffffffffffffffffffffffffffffffff160217905550507f0c4e2d6b66bd305bcffd64765c550562e7aca7e57b5ac5f24a7ec8c64e7e5ab581604051808273ffffffffffffffffffffffffffffffffffffffff1673ffffffffffffffffffffffffffffffffffffffff16815260200191505060405180910390a15b50565b600060011515600360003373ffffffffffffffffffffffffffffffffffffffff1673ffffffffffffffffffffffffffffffffffffffff16815260200190815260200160002060010160159054906101000a900460ff1615151415156110e657600080fd5b3373ffffffffffffffffffffffffffffffffffffffff1631905090565b6060600280548060200260200160405190810160405280929190818152602001828054801561118757602002820191906000526020600020905b8160009054906101000a900473ffffffffffffffffffffffffffffffffffffffff1673ffffffffffffffffffffffffffffffffffffffff168152602001906001019080831161113d575b5050505050905090565b60008060009054906101000a900473ffffffffffffffffffffffffffffffffffffffff1673ffffffffffffffffffffffffffffffffffffffff163373ffffffffffffffffffffffffffffffffffffffff161415156111ee57600080fd5b8173ffffffffffffffffffffffffffffffffffffffff166108fc611210611c84565b9081150290604051600060405180830381858888f1935050505015801561123b573d6000803e3d6000fd5b50919050565b6000809054906101000a900473ffffffffffffffffffffffffffffffffffffffff1673ffffffffffffffffffffffffffffffffffffffff163373ffffffffffffffffffffffffffffffffffffffff1614151561129c57600080fd5b600060149054906101000a900460ff1615156112b757600080fd5b60008060146101000a81548160ff0219169083151502179055507f7805862f689e2f13df9f062ff482ad3ad112aca9e0847911ed832e158c525b3360405160405180910390a1565b60008060009054906101000a900473ffffffffffffffffffffffffffffffffffffffff1673ffffffffffffffffffffffffffffffffffffffff163373ffffffffffffffffffffffffffffffffffffffff16141561135f576000905061141d565b600160003373ffffffffffffffffffffffffffffffffffffffff1673ffffffffffffffffffffffffffffffffffffffff16815260200190815260200160002060009054906101000a900460ff16156113ba576001905061141d565b600360003373ffffffffffffffffffffffffffffffffffffffff1673ffffffffffffffffffffffffffffffffffffffff16815260200190815260200160002060010160159054906101000a900460ff1615611418576002905061141d565b600390505b90565b6000809054906101000a900473ffffffffffffffffffffffffffffffffffffffff1673ffffffffffffffffffffffffffffffffffffffff163373ffffffffffffffffffffffffffffffffffffffff1614151561147b57600080fd5b6000809054906101000a900473ffffffffffffffffffffffffffffffffffffffff1673ffffffffffffffffffffffffffffffffffffffff16ff5b60016020528060005260406000206000915054906101000a900460ff1681565b6114dd6121e3565b600060149054906101000a900460ff161515156114f957600080fd5b600360003373ffffffffffffffffffffffffffffffffffffffff1673ffffffffffffffffffffffffffffffffffffffff16815260200190815260200160002060010160159054906101000a900460ff16156115b6577fd9a560ebcdc6c61750193a7315305c8c055fd9089dea73669d29576bc3226f1e33604051808273ffffffffffffffffffffffffffffffffffffffff1673ffffffffffffffffffffffffffffffffffffffff16815260200191505060405180910390a1611a17565b73__library_mp____________________________63ed1a54db836040518263ffffffff167c01000000000000000000000000000000000000000000000000000000000281526004018080602001828103825283818151815260200191508051906020019080838360005b8381101561163c578082015181840152602081019050611621565b50505050905090810190601f1680156116695780820380516001836020036101000a031916815260200191505b509250505060206040518083038186803b15801561168657600080fd5b505af415801561169a573d6000803e3d6000fd5b505050506040513d60208110156116b057600080fd5b8101908080519060200190929190505050156117a8577f133715872e9b2882294ade7043576a1a8d1fb72bbb46e7c2264192ce5c3bcf5633836000604051808473ffffffffffffffffffffffffffffffffffffffff1673ffffffffffffffffffffffffffffffffffffffff1681526020018060200183151515158152602001828103825284818151815260200191508051906020019080838360005b8381101561176757808201518184015260208101905061174c565b50505050905090810190601f1680156117945780820380516001836020036101000a031916815260200191505b5094505050505060405180910390a1611a17565b608060405190810160405280838152602001600015158152602001600073ffffffffffffffffffffffffffffffffffffffff16815260200160011515815250905080600360003373ffffffffffffffffffffffffffffffffffffffff1673ffffffffffffffffffffffffffffffffffffffff1681526020019081526020016000206000820151816000019080519060200190611845929190612226565b5060208201518160010160006101000a81548160ff02191690831515021790555060408201518160010160016101000a81548173ffffffffffffffffffffffffffffffffffffffff021916908373ffffffffffffffffffffffffffffffffffffffff16021790555060608201518160010160156101000a81548160ff021916908315150217905550905050600160053390806001815401808255809150509060018203906000526020600020016000909192909190916101000a81548173ffffffffffffffffffffffffffffffffffffffff021916908373ffffffffffffffffffffffffffffffffffffffff16021790555050507f903da21572f52b08472df8a78f74843a6ad06435b0b957f429b91e729106d74f33836000604051808473ffffffffffffffffffffffffffffffffffffffff1673ffffffffffffffffffffffffffffffffffffffff1681526020018060200183151515158152602001828103825284818151815260200191508051906020019080838360005b838110156119da5780820151818401526020810190506119bf565b50505050905090810190601f168015611a075780820380516001836020036101000a031916815260200191505b5094505050505060405180910390a15b5050565b600060149054906101000a900460ff1681565b6060600080600060149054906101000a900460ff16151515611a4f57600080fd5b600073ffffffffffffffffffffffffffffffffffffffff168473ffffffffffffffffffffffffffffffffffffffff1614151515611a8b57600080fd5b600360008573ffffffffffffffffffffffffffffffffffffffff1673ffffffffffffffffffffffffffffffffffffffff16815260200190815260200160002060010160159054906101000a900460ff161515611ae657600080fd5b600360008573ffffffffffffffffffffffffffffffffffffffff1673ffffffffffffffffffffffffffffffffffffffff168152602001908152602001600020600001600360008673ffffffffffffffffffffffffffffffffffffffff1673ffffffffffffffffffffffffffffffffffffffff16815260200190815260200160002060010160009054906101000a900460ff16600360008773ffffffffffffffffffffffffffffffffffffffff1673ffffffffffffffffffffffffffffffffffffffff16815260200190815260200160002060010160019054906101000a900473ffffffffffffffffffffffffffffffffffffffff16828054600181600116156101000203166002900480601f016020809104026020016040519081016040528092919081815260200182805460018160011615610100020316600290048015611c705780601f10611c4557610100808354040283529160200191611c70565b820191906000526020600020905b815481529060010190602001808311611c5357829003601f168201915b505050505092509250925092509193909250565b60008060009054906101000a900473ffffffffffffffffffffffffffffffffffffffff1673ffffffffffffffffffffffffffffffffffffffff163373ffffffffffffffffffffffffffffffffffffffff16141515611ce157600080fd5b3073ffffffffffffffffffffffffffffffffffffffff1631905090565b600581815481101515611d0d57fe5b906000526020600020016000915054906101000a900473ffffffffffffffffffffffffffffffffffffffff1681565b60046020528060005260406000206000915090505481565b6000809054906101000a900473ffffffffffffffffffffffffffffffffffffffff1673ffffffffffffffffffffffffffffffffffffffff163373ffffffffffffffffffffffffffffffffffffffff16141515611daf57600080fd5b600060149054906101000a900460ff16151515611dcb57600080fd5b6001600060146101000a81548160ff0219169083151502179055507f6985a02210a168e66602d3235cb6db0e70f92b3ba4d376a33c0f3d9434bff62560405160405180910390a1565b6000809054906101000a900473ffffffffffffffffffffffffffffffffffffffff1681565b60606005805480602002602001604051908101604052809291908181526020018280548015611ebd57602002820191906000526020600020905b8160009054906101000a900473ffffffffffffffffffffffffffffffffffffffff1673ffffffffffffffffffffffffffffffffffffffff1681526020019060010190808311611e73575b5050505050905090565b6003602052806000526040600020600091509050806000018054600181600116156101000203166002900480601f016020809104026020016040519081016040528092919081815260200182805460018160011615610100020316600290048015611f735780601f10611f4857610100808354040283529160200191611f73565b820191906000526020600020905b815481529060010190602001808311611f5657829003601f168201915b5050505050908060010160009054906101000a900460ff16908060010160019054906101000a900473ffffffffffffffffffffffffffffffffffffffff16908060010160159054906101000a900460ff16905084565b600060011515600360003373ffffffffffffffffffffffffffffffffffffffff1673ffffffffffffffffffffffffffffffffffffffff16815260200190815260200160002060010160159054906101000a900460ff16151514151561202d57600080fd5b600060149054906101000a900460ff1615151561204957600080fd5b600460003373ffffffffffffffffffffffffffffffffffffffff1673ffffffffffffffffffffffffffffffffffffffff16815260200190815260200160002054905090565b6000809054906101000a900473ffffffffffffffffffffffffffffffffffffffff1673ffffffffffffffffffffffffffffffffffffffff163373ffffffffffffffffffffffffffffffffffffffff161415156120e957600080fd5b600073ffffffffffffffffffffffffffffffffffffffff168173ffffffffffffffffffffffffffffffffffffffff161415151561212557600080fd5b8073ffffffffffffffffffffffffffffffffffffffff166000809054906101000a900473ffffffffffffffffffffffffffffffffffffffff1673ffffffffffffffffffffffffffffffffffffffff167f8be0079c531659141344cd1fd0a4f28419497f9722a3daafe3b4186f6b6457e060405160405180910390a3806000806101000a81548173ffffffffffffffffffffffffffffffffffffffff021916908373ffffffffffffffffffffffffffffffffffffffff16021790555050565b60806040519081016040528060608152602001600015158152602001600073ffffffffffffffffffffffffffffffffffffffff1681526020016000151581525090565b828054600181600116156101000203166002900490600052602060002090601f016020900481019282601f1061226757805160ff1916838001178555612295565b82800160010185558215612295579182015b82811115612294578251825591602001919060010190612279565b5b5090506122a291906122a6565b5090565b6122c891905b808211156122c45760008160009055506001016122ac565b5090565b905600a165627a7a72305820136f7965d18bfa6c3f1ac7c835601e12f465e4ad4771b0a1476710b4f1ce5ed30029",
  "source": "pragma solidity ^0.4.24;\r\n\r\nimport \"./admins_mp.sol\";\r\nimport \"./SafeMath.sol\";\r\nimport { library_mp } from \"./library_mp.sol\";\r\n\r\n/**\r\n * author: Rajenda Maharjan\r\n * @title stores_mp\r\n * @dev The stores_mp contract is for stores and owner of the stores. It has store struct and methods.\r\n */\r\ncontract stores_mp is admins_mp {\r\n   /**\r\n    * @dev using SafeMath\r\n    */\r\n    using SafeMath for uint256;\r\n    /**\r\n     * @dev Store owner structure which has all stores and approvedBy admin or not\r\n     * store_name: Name of the store\r\n     * isApproved: true if approved by admin, fals otherwise\r\n     * approvedBy: admin address who approved this owner\r\n     * flag: Always true of a row.\r\n     */\r\n    struct StoreOwner {\r\n        string store_name;\r\n        bool isApproved;\r\n        address approvedBy;     //Admin Address\r\n        bool flag;              //Always true and false when no record.\r\n    }\r\n    /**\r\n     * @dev mapping to store store owner information\r\n     */\r\n    mapping (address => StoreOwner) public store_owners;\r\n    /**\r\n     * @dev mapping to store store owner balance\r\n     */\r\n    mapping (address => uint) public store_owner_balances;\r\n    /**\r\n     * @dev Array store store owner addresses \r\n     */\r\n    address[] public storeOwnerAddresses;\r\n    /**\r\n     * @dev Event to know empty store name\r\n     * params: store owner address, store name and approved by admin or not \r\n     */\r\n    event emptyStoreNameEvent(address store_owner, string store_name, bool isApproved);\r\n    /**\r\n     * @dev Event to check duplicate store owner\r\n     * params: store owner address \r\n     */\r\n    event storeAlreadyExistEvent(address store_owner);\r\n    /**\r\n     * @dev Event for new store registration\r\n     * params: store owner address, store name and here it will passed isApproved=fase\r\n     */\r\n    event newStoreApplicationEvent(address store_owner, string store_name, bool isApproved);\r\n    /**\r\n     * @dev Event for approved by admin\r\n     * params: store owner address, store name and here it will passed isApproved=true\r\n     */\r\n    event approveStoreApplicationEvent(address store_owner, string store_name, bool isApproved);\r\n    /**\r\n     * @dev Event for amount withdrawn notice\r\n     * params: store owner address, amount\r\n     */\r\n    event amountWithdrawn(address storeAddress, uint amountWithdrawn);\r\n    /**\r\n     * @dev Register new store method but still need to approve by admin\r\n     * params: store name\r\n     * pausable: yes\r\n     */\r\n    function addNewStore(string _store_name) public whenNotPaused {\r\n        /**\r\n         * @dev Check if same address already exist. using One Address One Store Concept. If already store name is \r\n         * there with same address, don't create multiple\r\n         */\r\n        if(store_owners[msg.sender].flag) {\r\n            emit storeAlreadyExistEvent(msg.sender);\r\n            return;\r\n        }\r\n        //Check empty string value paramemter for Store\r\n        if(library_mp.IsEmptyString(_store_name)) {\r\n            emit emptyStoreNameEvent(msg.sender, _store_name, false);\r\n            return;\r\n        }\r\n        StoreOwner memory newStore=StoreOwner({store_name: _store_name, isApproved: false, \r\n                approvedBy: address(0), flag: true});\r\n        store_owners[msg.sender] = newStore;\r\n        storeOwnerAddresses.push(msg.sender)-1;\r\n        \r\n        emit newStoreApplicationEvent(msg.sender, _store_name, false);\r\n    }\r\n    /**\r\n     * @dev To get all store addresses. This is accessible to all.\r\n     */\r\n    function getAllStoreAddresses() public view returns(address[]) {\r\n        return storeOwnerAddresses;\r\n    }\r\n\r\n    /**\r\n     * @dev Get Store details by store owner address\r\n     * params: store owner address\r\n     * returns: store name, appoved or not, appoved admin address\r\n     * pausable: yes\r\n     */\r\n    function getStoreByAddress(address _storeOwnerAddress) public view whenNotPaused returns(string, bool, address) {\r\n        require(_storeOwnerAddress != address(0));\r\n        require(store_owners[_storeOwnerAddress].flag);\r\n        return(store_owners[_storeOwnerAddress].store_name, store_owners[_storeOwnerAddress].isApproved, store_owners[_storeOwnerAddress].approvedBy);\r\n    }\r\n    /**\r\n     * @dev this function can be used for validating store owner but not using since public variable does this job\r\n     *function IsValidStoreOwner(address _storeOwnerAddress) public constant returns(bool) {\r\n     *   require(_storeOwnerAddress!=address(0));\r\n     *   return(store_owners[_storeOwnerAddress].flag);\r\n     *}\r\n     */\r\n    /**\r\n     * @dev Throws if called by any account other than the store owner. Modifier for only store owner\r\n     */\r\n    modifier onlyStoreOwner() {\r\n        require(store_owners[msg.sender].flag==true);\r\n        _;\r\n    }\r\n\r\n    /**\r\n     * @dev calls this method when admin approves store\r\n     * params: store owner address\r\n     * pausable: yes\r\n     */\r\n    function approveStoreByAdmin(address _storeOwnerAddress) public onlyAdmin whenNotPaused {\r\n        require(_storeOwnerAddress != address(0));\r\n        require(admins[msg.sender]);    //should be in admin List\r\n        store_owners[_storeOwnerAddress].isApproved=true;\r\n        store_owners[_storeOwnerAddress].approvedBy=msg.sender;\r\n        emit approveStoreApplicationEvent(_storeOwnerAddress, store_owners[_storeOwnerAddress].store_name, true);\r\n    }\r\n    /**\r\n     * @dev To withdraw amount by store owner to their wallet address from contract balance\r\n     * params: store owner address\r\n     * pausable: yes\r\n     */\r\n    function withdrawAmount(uint _amountToWithdraw) public onlyStoreOwner whenNotPaused {\r\n        require(address(this).balance >= _amountToWithdraw);\r\n        require(store_owner_balances[msg.sender] >= _amountToWithdraw);\r\n        //Checking underflow and overflow\r\n        if(address(msg.sender).balance + _amountToWithdraw >= address(msg.sender).balance  && address(msg.sender).balance - _amountToWithdraw <= address(msg.sender).balance) { \r\n            //To avoid Reentrancy, the below line should be before transfering actual amount\r\n            store_owner_balances[msg.sender] -= _amountToWithdraw;\r\n            address(msg.sender).transfer(_amountToWithdraw);\r\n            emit amountWithdrawn(msg.sender, _amountToWithdraw);\r\n        }\r\n    }\r\n    function getStoreOwnerBalance() public view onlyStoreOwner returns(uint) {\r\n       return address(msg.sender).balance;\r\n    }  \r\n    /**\r\n     * @dev delete store can be implemented if needed but need further attention\r\n     *function deleteStore(address _storeOwnerAddress) public onlyAdmin whenNotPaused {\r\n     *   require(_storeOwnerAddress != address(0));\r\n     *   require(admins[msg.sender]);    //should be in admin List\r\n     *   delete store_owners[_storeOwnerAddress];\r\n     *}\r\n     */\r\n    /**\r\n     * @dev To get max amount that store owner can transfer to their wallet. accessible only for store owner\r\n     * pausable: yes\r\n     */\r\n    function getMaxAmountCanWithdraw() public view onlyStoreOwner whenNotPaused returns (uint) {\r\n        return store_owner_balances[msg.sender];\r\n    }\r\n    \r\n   \r\n   /** enum USER_TYPE returns \r\n     * 0 for CONTRACT_OWNER, \r\n     * 1 for ADMIN, \r\n     * 2 for STORE_OWNER \r\n     * 3 for USER\r\n     */\r\n    enum USER_TYPE { CONTRACT_OWNER, ADMIN, STORE_OWNER, USER }\r\n    /**\r\n     * @dev To get the currently logon user getUserType.\r\n     * returns 0, 1, 2 or 3\r\n     */\r\n    function getUserType() public constant returns(USER_TYPE)\r\n    {\r\n        if(msg.sender == owner)\r\n            return USER_TYPE.CONTRACT_OWNER;\r\n        if(admins[msg.sender])\r\n            return USER_TYPE.ADMIN;\r\n        if(store_owners[msg.sender].flag)\r\n            return USER_TYPE.STORE_OWNER;\r\n        else\r\n            return USER_TYPE.USER;\r\n    }\r\n}",
  "sourcePath": "I:\\test\\rajmahar_mp1\\marketplace\\contracts\\stores_mp.sol",
  "compiler": {
    "name": "solc",
    "version": "0.4.24+commit.e67f0147.Emscripten.clang"
  },
  "schemaVersion": "2.0.1",
  "updatedAt": "2018-08-27T22:32:14.136Z"
}